:020000040000FA
:100000000C9462000C948A000C948A000C948A0070
:100010000C948A000C948A000C948A000C948A0038
:100020000C948A000C948A000C948A000C948A0028
:100030000C948A000C948A000C948A000C948A0018
:100040000C9489050C948A000C9457050C94310586
:100050000C948A000C948A000C948A000C948A00F8
:100060000C94D3050C948A000000000024002700A3
:100070002A0000000000250028002B0000000000DE
:1000800023002600290004040404040404040202DA
:100090000202020203030303030301020408102007
:1000A0004080010204081020010204081020000012
:1000B0000008000201000003040700000000000027
:1000C0000000F20611241FBECFEFD8E0DEBFCDBF87
:1000D00011E0A0E0B1E0E6ECF5E102C005900D9280
:1000E000A43CB107D9F723E0A4ECB1E001C01D9214
:1000F000A934B207E1F710E0C2E6D0E004C02197CE
:10010000FE010E94DB0AC136D107C9F70E943A07F7
:100110000C94E10A0C94000008950895AF92BF92E8
:10012000CF92DF92EF92FF920F931F93CF93DF93C3
:100130006C017B018B01040F151FEB015E01AE18F2
:10014000BF08C017D10759F06991D601ED91FC9114
:100150000190F081E02DC6010995892B79F7C50141
:10016000DF91CF911F910F91FF90EF90DF90CF9093
:10017000BF90AF900895FC01538D448D252F30E042
:10018000842F90E0821B930B541710F0CF960895A4
:1001900001970895FC01918D828D981761F0A28DD1
:1001A000AE0FBF2FB11D5D968C91928D9F5F9F7397
:1001B000928F90E008958FEF9FEF0895FC01918D4D
:1001C000828D981731F0828DE80FF11D858D90E0BA
:1001D00008958FEF9FEF0895FC01918D228D892F57
:1001E00090E0805C9F4F821B91098F73992708953F
:1001F00084E992E00E94EC0021E0892B09F420E0E0
:10020000822F089580E090E0892B29F00E94F80069
:1002100081110C9400000895FC01A48DA80FB92F42
:10022000B11DA35ABF4F2C91848D90E001968F731E
:100230009927848FA689B7892C93A089B1898C913D
:10024000837080648C93938D848D981306C002888C
:10025000F389E02D80818F7D80830895EF92FF9256
:100260000F931F93CF93DF93EC0181E0888F9B8DD9
:100270008C8D98131AC0E889F989808185FF15C093
:100280009FB7F894EE89FF896083E889F9898081B6
:100290008370806480839FBF81E090E0DF91CF9185
:1002A0001F910F91FF90EF900895F62E0B8D10E0A7
:1002B0000F5F1F4F0F731127E02E8C8D8E110CC016
:1002C0000FB607FCFACFE889F989808185FFF5CF61
:1002D000CE010E940C01F1CFEB8DEC0FFD2FF11D33
:1002E000E35AFF4FF0829FB7F8940B8FEA89FB899E
:1002F00080818062CFCFCF93DF93EC01888D8823FC
:10030000B9F0AA89BB89E889F9898C9185FD03C078
:10031000808186FD0DC00FB607FCF7CF8C9185FF5D
:10032000F2CF808185FFEDCFCE010E940C01E9CF95
:10033000DF91CF910895833081F028F4813099F0D6
:100340008230A9F008958730A9F08830C9F0843050
:10035000B1F4809180008F7D03C0809180008F7701
:1003600080938000089584B58F7784BD089584B507
:100370008F7DFBCF8091B0008F778093B000089580
:100380008091B0008F7DF9CFCF93DF93282F30E09D
:10039000F901E255FF4F8491F901E656FF4FD491E0
:1003A000F901EA57FF4FC491CC23A1F081110E94BB
:1003B0009B01EC2FF0E0EE0FFF1FE458FF4FA591DB
:1003C000B491EC91ED2381E090E009F480E0DF91BD
:1003D000CF91089580E090E0FACF1F93CF93DF9301
:1003E000282F30E0F901E255FF4F8491F901E656DC
:1003F000FF4FD491F901EA57FF4FC491CC23A9F0E4
:10040000162F81110E949B01EC2FF0E0EE0FFF1FD1
:10041000EE58FF4FA591B4918FB7F894EC9111115C
:1004200008C0D095DE23DC938FBFDF91CF911F9161
:100430000895DE2BF8CFCF93DF9390E0FC01E656D2
:10044000FF4F24918A579F4FFC0184918823D1F05C
:1004500090E0880F991FFC01E859FF4FA591B491D6
:10046000FC01EE58FF4FC591D49161110EC09FB7AA
:10047000F8948C91E22FE0958E238C932881E223CF
:10048000E8839FBFDF91CF9108958FB7F894EC91E7
:10049000E22BEC938FBFF6CF3FB7F89480917D02AB
:1004A00090917E02A0917F02B091800226B5A89B18
:1004B00005C02F3F19F00196A11DB11D3FBFBA2FF6
:1004C000A92F982F8827BC01CD01620F711D811DB6
:1004D000911D42E0660F771F881F991F4A95D1F73B
:1004E00008958F929F92AF92BF92CF92DF92EF9238
:1004F000FF924B015C010E944C026B017C010E9447
:100500004C026C197D098E099F09683E7340810574
:100510009105A8F321E0821A9108A108B10888EE9C
:10052000C80E83E0D81EE11CF11C81149104A104C3
:10053000B10429F7FF90EF90DF90CF90BF90AF907C
:100540009F908F900895089520910702260F3327DA
:10055000331F21323105ECF420915002FC0190E070
:1005600080E0243069F082E00895A0910702219193
:10057000AC0149515E4FA40FB52FB11D2C930196CC
:10058000861798F380910702680F6093070280E056
:10059000089581E008951092500281E080934F0207
:1005A00010922A0261E082E10E94ED0161E083E1A4
:1005B0000E94ED01E9EBF0E080818E7F80838081F5
:1005C0008D7F808388E48093B80085E48093BC00AD
:1005D0000895CF93DF9391E09093E6018823B9F0DB
:1005E000C091B800D091BA008091BC008A7B809302
:1005F000BC0060E082E10E94ED0160E083E10E94C6
:10060000ED010E94CB02D093BA00C093B800DF91F5
:10061000CF9108950895E091880280918702E817AC
:1006200030F4F0E0EA53FE4F808190E008958FEFC0
:100630009FEF089590918802809187022FEF3FEFFE
:10064000981748F4E92FF0E0EA53FE4F208130E09C
:100650009F5F90938802C9010895809187029091CD
:100660008802891B990B0895CF92DF92EF92FF9237
:100670000F931F93CF93DF937C01CB018A012091CD
:100680005602222389F0EB016B01C40ED51ECC1556
:10069000DD0569F06991D701ED91FC910190F08140
:1006A000E02DC7010995F3CF642F0E94A402C80171
:1006B000DF91CF911F910F91FF90EF90DF90CF903E
:1006C0000895CF93DF931F92CDB7DEB76983209152
:1006D00056022223F9F020918502203258F021E0C1
:1006E00030E0FC013383228390E080E00F90DF91C3
:1006F000CF91089580918602E82FF0E0E95AFD4FEE
:10070000998190838F5F809386028093850281E038
:1007100090E0ECCF61E0CE0101960E94A402F7CFF9
:10072000CF92DF92EF92FF920F931F93CF93DF93BD
:10073000FC01C48121E020935602C09377021092FD
:100740008602109285028385682B81E393E00E94E4
:100750006103D0918502D13208F092C00E944C0210
:100760006B017C0180915002811165C082E0809311
:10077000500281E080934F028FEF80934E021092DF
:100780004D02D0934C02A7E5B2E0ECE2F2E080E04B
:10079000D81385C010922B0280912B02CC0FC82B4E
:1007A000C0932B0280912A02813009F07CC0109204
:1007B0002A020E944C026B017C0180912B028093E3
:1007C000BB008091520290915302A0915402B091CB
:1007D0005502892B8A2B8B2B99F00E944C02009199
:1007E00052021091530220915402309155026C191B
:1007F0007D098E099F090617170728073907E0F1B9
:100800008091BC0083FDD9CF85EC8093BC000E9411
:100810004C026B017C0180915002823009F445C08A
:1008200080914E028F3F61F180914E02803241F102
:1008300080914E0225C08091520290915302A09166
:100840005402B0915502892B8A2B8B2B09F48ACF45
:100850000E944C02009152021091530220915402C6
:10086000309155026C197D098E099F0906171707EB
:100870002807390708F076CF809151020E94E902DB
:10088000109286021092850210925602DF91CF914B
:100890001F910F91FF90EF90DF90CF9008959D9161
:1008A00091938F5F75CF85EEB0CF8091520290917A
:1008B0005302A0915402B0915502892B8A2B8B2BA5
:1008C00009F4A9CF0E944C020091520210915302E8
:1008D00020915402309155026C197D098E099F09AF
:1008E000061717072807390708F095CFC5CF90E0FE
:1008F00080E00895FC0101900020E9F73197AF01F5
:10090000481B590BBC018DE393E00C948E000F93B0
:100910001F93CF938C01C62F0E9490036C2F6460AD
:10092000C8010E9490036C2F6B7FC8010E94900346
:1009300083EC90E00197F1F7CF911F910F9108950B
:100940000F931F93CF93DF938C01D62FC42F607F1B
:10095000642B0E94870480E1D89FB00111246C2B86
:10096000C801DF91CF911F910F910C94870440E053
:1009700061E08DE393E00E94A0048BE39FE1019787
:10098000F1F70895CF93DF93CDB7DEB728970FB671
:10099000F894DEBF0FBECDBF98E0E4E0F1E0DE01E9
:1009A000119601900D929A95E1F790914503981751
:1009B00008F48FEF90E0880F991F21E030E02C0FB2
:1009C0003D1F820F931FFC016081606840E08DE352
:1009D00093E028960FB6F894DEBF0FBECDBFDF912F
:1009E000CF910C94A00441E00E94A00481E090E02B
:1009F000089585ED8093BC0080915202909153023E
:100A0000A0915402B09155020796A11DB11D23E09B
:100A1000B695A795979587952A95D1F72091BC0013
:100A200024FD03C01092500208954091520250914B
:100A300053026091540270915502452B462B472B6F
:100A400069F30097A105B10541F025E32A95F1F777
:100A500000000197A109B109E1CF809151020C94E6
:100A6000E9021F920F920FB60F9211242F933F931A
:100A70004F935F936F937F938F939F93AF93BF93A6
:100A8000EF93FF9384E992E00E940C01FF91EF91B4
:100A9000BF91AF919F918F917F916F915F914F9196
:100AA0003F912F910F900FBE0F901F9018951F929E
:100AB0000F920FB60F9211242F938F939F93EF9362
:100AC000FF93E091A402F091A5028081E091AA0237
:100AD000F091AB0282FD1BC090818091AD028F5FCF
:100AE0008F732091AE02821741F0E091AD02F0E0E9
:100AF000EC56FD4F958F8093AD02FF91EF919F9142
:100B00008F912F910F900FBE0F901F90189580819D
:100B1000F4CF1F920F920FB60F9211242F933F9391
:100B20008F939F93AF93BF938091790290917A02B4
:100B3000A0917B02B0917C023091780223E0230FD8
:100B40002D3758F50196A11DB11D20937802809391
:100B5000790290937A02A0937B02B0937C028091F9
:100B60007D0290917E02A0917F02B0918002019659
:100B7000A11DB11D80937D0290937E02A0937F0200
:100B8000B0938002BF91AF919F918F913F912F9130
:100B90000F900FBE0F901F90189526E8230F029616
:100BA000A11DB11DD2CF1F920F920FB60F9211242B
:100BB0002F933F934F935F936F937F938F939F9365
:100BC000AF93BF93EF93FF938091B900887F8036F6
:100BD00009F44AC0F0F5883209F4A7C018F580314D
:100BE00009F49BC0B8F4882309F4F9C0883009F4EB
:100BF00094C0FF91EF91BF91AF919F918F917F91A1
:100C00006F915F914F913F912F910F900FBE0F9079
:100C10001F901895883109F488C0803251F780936D
:100C20004E0214C0803409F49DC040F48033B9F3FF
:100C30008833F9F680934E0285ECB0C0803509F414
:100C400085C0883509F496C0883499F60E94F90465
:100C5000D0CF883909F48CC038F5883729F050F4A2
:100C6000883611F0803729F683E080935002109285
:100C7000290257C0883809F47BC0803919F08038C0
:100C800009F0B7CF80912902803208F071C0E0915D
:100C9000290281E08E0F809329028091BB00F0E051
:100CA000E75FFD4F80833DC0803B39F0E0F4803A40
:100CB00009F479C0883A09F09CCF84E0809350020F
:100CC0001092080210920702E0918302F0918402D0
:100CD00009958091070281110FC081E0809307027E
:100CE0001092E70109C0803C09F4A6CF883C09F4C2
:100CF000A3CF883B09F07DCFE091080281E08E0F01
:100D000080930802F0E0E951FE4F80818093BB00A0
:100D1000909108028091070229C080912B02809354
:100D2000BB0085EC8093BC0064CF90914D02809114
:100D30004C02981758F5E0914D0281E08E0F809398
:100D40004D02F0E0E45DFD4F8081E9CFE0914D027E
:100D500081E08E0F80934D028091BB00F0E0E45D56
:100D6000FD4F808390914D0280914C029817C8F2FC
:100D700085E8D8CFE0914D0281E08E0F80934D023F
:100D80008091BB00F0E0E45DFD4F808380914F02D5
:100D900081115CCF81E080932A0284EA8093BC00B9
:100DA0001092500226CF85EC8093BC001092500226
:100DB00080912902803230F4E0912902F0E0E75F6F
:100DC000FD4F10826091290270E0E0918102F09164
:100DD000820289E092E00995109229020ACF1092CE
:100DE0004E0234CFE4E9F2E01382128288EE93E0FF
:100DF000A0E0B0E084839583A683B78320E131E04F
:100E00003183208325EC30E03587248724EC30E0E3
:100E10003787268720EC30E0318B208B21EC30E0C7
:100E2000338B228B22EC30E0358B248B26EC30E0A8
:100E3000378B268B118E128E138E148EE1E3F3E026
:100E40001382128284839583A683B78382E291E022
:100E500091838083EDE3F3E01382128284E391E0D7
:100E60009183808387E2848380E1818782E0828727
:100E700013860895CF93DF93CDB7DEB7A1970FB652
:100E8000F894DEBF0FBECDBF789484B5826084BD78
:100E900084B5816084BD85B5826085BD85B581607E
:100EA00085BD80916E00816080936E0010928100FC
:100EB00080918100826080938100809181008160B7
:100EC0008093810080918000816080938000809178
:100ED000B10084608093B1008091B0008160809304
:100EE000B00080917A00846080937A0080917A00CB
:100EF000826080937A0080917A00816080937A008A
:100F000080917A00806880937A001092C100E0910D
:100F1000A402F091A50282E08083E091A002F0910A
:100F2000A1021082E091A202F091A3028FEC8083D3
:100F30001092AC02E091A802F091A90286E08083B1
:100F4000E091A602F091A702808180618083E09108
:100F5000A602F091A702808188608083E091A602BA
:100F6000F091A702808180688083E091A602F091D1
:100F7000A70280818F7D8083109288021092870261
:100F800010928602109285020E94CB028CE890E0BB
:100F900090938402809383028DE890E09093820284
:100FA000809381021092420380914703823018F0AF
:100FB00098E0909342038093450362E370E080E001
:100FC00090E00E947102609148038DE393E00E94DB
:100FD000900368EE73E080E090E00E94710260E3AD
:100FE0008DE393E00E9487040BE416E4C8010197A7
:100FF000F1F760E38DE393E00E948704C801019755
:10100000F1F760E38DE393E00E94870483E592E0CB
:101010000197F1F760E28DE393E00E94870460910D
:101020004203606240E08DE393E00E94A00484E00C
:101030008093430340E06CE08DE393E00E94A004C2
:101040000E94B70482E08093440340E066E08DE3B1
:1010500093E00E94A00440E062E08DE393E00E94F0
:10106000A0048BE39FE10197F1F788E080934803A8
:1010700060E08DE393E00E94900380E00E94C20450
:101080008CE391E00E947A0481E00E94C2048DE426
:1010900091E00E947A0468EE73E080E090E00E94A4
:1010A00071020E94B70480E00E94C2048EE591E0C4
:1010B0000E947A0481E00E94C2048FE691E00E94BF
:1010C0007A0468EE73E080E090E00E94710260E0D4
:1010D00085E00E941B0260E084E00E941B0260E049
:1010E0008EE00E941B0260E08FE00E941B0260E025
:1010F00080E10E941B0260E081E10E941B0260E02F
:1011000080E00E941B0261E088E00E941B0261E017
:101110008DE00E941B0261E08CE00E941B0285E0D2
:10112000482E512C612C712C22242394312C2AE03E
:10113000C22ED12CE12CF12C80919202909193023D
:10114000892B09F086C00E94B70480E00E94C20487
:1011500080E891E00E947A0485E00E94C401019732
:1011600009F042C080918C0290918D02019690937B
:101170008D0280938C026CE271E080E090E00E942E
:10118000710281E00E94C20480908C0290908D02D6
:10119000092C000CAA08BB08B7FE45C041E06DE26F
:1011A0008DE393E00E94A00422273327A901281988
:1011B00039094A095B0919A28E010F5D1F4FCA0147
:1011C000B901A70196010E94AA0A605DF801629325
:1011D0008F01211531054105510589F701151105CB
:1011E00019F0C8010E947A0484E00E94C401892B8E
:1011F00009F4B2CF84E00E94C4018130910531F43A
:1012000090939302809392020E94B704E0E0F0E092
:10121000EF2B09F491CF0E94F800882309F48CCFBA
:101220000E94000089CFA501940119A28E010F5DD3
:101230001F4FCA01B901A70196010E94AA0A605D69
:10124000F80162938F01211531054105510589F798
:10125000C5CF80E00E94C20480E991E00E947A0438
:101260008091900290919102892BD9F50E94200AD9
:10127000A30192010E94780A70938B0260938A0204
:101280001092890280918A0290918B02910102C092
:10129000220F331F8A95E2F72093890260E088E0ED
:1012A0000E94ED010091890218E0602F661F6627F9
:1012B000661F8CE00E94ED01000F61E08DE00E944E
:1012C000ED0160E08DE00E94ED01115071F761E0E9
:1012D00088E00E94ED0181E090E09093910280937C
:1012E00090028EE00E94C401019709F03FC06CE2B9
:1012F00071E080E090E00E94710280918E029091F6
:101300008F02019690938F0280938E0220918E021D
:1013100030918F0280918C0290918D0228173907AD
:10132000F4F120918E0230918F0280918C02909185
:101330008D02281739070CF469CF0E94B7040E9468
:10134000B70480E00E94C20481EA91E00E947A041E
:1013500081E00E94C20482EB91E00E947A0460ED79
:1013600077E080E090E00E94710250CF8FE00E9411
:10137000C401019709F4BBCF80E10E94C401019729
:1013800009F4B5CF81E10E94C401019709F4AFCF00
:1013900080E00E94C401019709F038CFA8CF1092D5
:1013A000910210929002BDCF8F929F92AF92BF9206
:1013B000CF92DF92EF92FF92CF93DF93EC0168819F
:1013C00079818A819B81611571058105910521F4DF
:1013D00064E279ED8BE597E02DE133EF41E050E0F9
:1013E0000E94780A49015A019B01AC01A7EAB1E4C5
:1013F0000E94970A6B017C01ACEEB4EFA501940149
:101400000E94A50AC60ED71EE81EF91EF7FE06C0EA
:1014100081E0C81AD108E10880E8F80AC882D982B8
:10142000EA82FB82C701B6019F77DF91CF91FF90DF
:10143000EF90DF90CF90BF90AF909F908F900895E6
:101440008F929F92AF92BF92CF92DF92EF92FF92D4
:10145000609100017091010180910201909103015E
:10146000611571058105910521F464E279ED8BE543
:1014700097E02DE133EF41E050E00E94780A490106
:101480005A019B01AC01A7EAB1E40E94970A6B01E3
:101490007C01ACEEB4EFA50194010E94A50AC60E32
:1014A000D71EE81EF91EF7FE06C081E0C81AD10853
:1014B000E10880E8F80AC0920001D0920101E092B0
:1014C0000201F0920301C701B6019F77FF90EF90F0
:1014D000DF90CF90BF90AF909F908F9008956093D2
:1014E000000170930101809302019093030108951C
:1014F000052E97FB1EF400940E948F0A57FD07D01B
:101500000E94AA0A07FC03D04EF40C948F0A50954F
:101510004095309521953F4F4F4F5F4F08959095DF
:101520008095709561957F4F8F4F9F4F08950E94D2
:10153000CC0AA59F900DB49F900DA49F800D911D86
:1015400011240895B7FF0C94970A0E94970A821BF2
:10155000930B0895A1E21A2EAA1BBB1BFD010DC01F
:10156000AA1FBB1FEE1FFF1FA217B307E407F50753
:1015700020F0A21BB30BE40BF50B661F771F881F2F
:10158000991F1A9469F760957095809590959B01C5
:10159000AC01BD01CF010895A29FB001B39FC0016E
:1015A000A39F700D811D1124911DB29F700D811D8F
:1015B0001124911D0895EE0FFF1F0590F491E02D69
:1015C0000994F894FFCF01000000000040001400CF
:1015D0005400000000002E018E00BB007B01EC00D7
:1015E000CA00DE00000000006103340377040A0330
:1015F0002D031A030B0300000000F3048E00770490
:10160000A30220204269656E76656E69646F206171
:1016100020200020205375706572204775616E741C
:1016200069202000556E61206372656163696F6E89
:101630002064653A0020202020204D2E412E4C2E83
:1016400020202020200043616E742064652076698C
:10165000616A65733A002020202041204A554741A5
:1016600052212020202000202046656C6963696497
:1016700061646573212020002046696E2064656CDA
:0A168000206A7565676F21200000E5
:107E0000112484B714BE81FFF0D085E080938100F7
:107E100082E08093C00088E18093C10086E0809377
:107E2000C20080E18093C4008EE0C9D0259A86E02C
:107E300020E33CEF91E0309385002093840096BBD3
:107E4000B09BFECF1D9AA8958150A9F7CC24DD24C4
:107E500088248394B5E0AB2EA1E19A2EF3E0BF2EE7
:107E6000A2D0813461F49FD0082FAFD0023811F036
:107E7000013811F484E001C083E08DD089C08234E0
:107E800011F484E103C0853419F485E0A6D080C0E4
:107E9000853579F488D0E82EFF2485D0082F10E0AE
:107EA000102F00270E291F29000F111F8ED06801E7
:107EB0006FC0863521F484E090D080E0DECF843638
:107EC00009F040C070D06FD0082F6DD080E0C81688
:107ED00080E7D80618F4F601B7BEE895C0E0D1E017
:107EE00062D089930C17E1F7F0E0CF16F0E7DF06D8
:107EF00018F0F601B7BEE89568D007B600FCFDCFD4
:107F0000A601A0E0B1E02C9130E011968C91119780
:107F100090E0982F8827822B932B1296FA010C0160
:107F200087BEE89511244E5F5F4FF1E0A038BF0790
:107F300051F7F601A7BEE89507B600FCFDCF97BE46
:107F4000E89526C08437B1F42ED02DD0F82E2BD052
:107F50003CD0F601EF2C8F010F5F1F4F84911BD097
:107F6000EA94F801C1F70894C11CD11CFA94CF0C13
:107F7000D11C0EC0853739F428D08EE10CD085E9AC
:107F80000AD08FE07ACF813511F488E018D01DD067
:107F900080E101D065CF982F8091C00085FFFCCF94
:107FA0009093C60008958091C00087FFFCCF809118
:107FB000C00084FD01C0A8958091C6000895E0E648
:107FC000F0E098E1908380830895EDDF803219F02E
:107FD00088E0F5DFFFCF84E1DECF1F93182FE3DFCA
:107FE0001150E9F7F2DF1F91089580E0E8DFEE27F6
:047FF000FF270994CA
:027FFE00040479
:00000001FF
