:020000040000FA
:100000000C9462000C948A000C948A000C948A0070
:100010000C948A000C948A000C948A000C948A0038
:100020000C948A000C948A000C948A000C948A0028
:100030000C948A000C948A000C948A000C948A0018
:100040000C9407030C948A000C948A000C948A0088
:100050000C948A000C948A000C948A000C948A00F8
:100060000C948A000C948A000000000024002700F1
:100070002A0000000000250028002B0000000000DE
:1000800023002600290004040404040404040202DA
:100090000202020203030303030301020408102007
:1000A0004080010204081020010204081020000012
:1000B0000008000201000003040700000000000027
:1000C0000000380411241FBECFEFD8E0DEBFCDBF43
:1000D00011E0A0E0B1E0EAECFAE002C005900D9278
:1000E000A232B107D9F721E0A2E2B1E001C01D922E
:1000F000A734B207E1F710E0C2E6D0E004C02197D0
:10010000FE010E945D05C136D107C9F70E94510367
:100110000C9463050C940000AF92BF92CF92DF92D3
:10012000EF92FF920F931F93CF93DF936C017B01AC
:100130008B01040F151FEB015E01AE18BF08C0173D
:10014000D10759F06991D601ED91FC910190F081B0
:10015000E02DC6010995892B79F7C501DF91CF9173
:100160001F910F91FF90EF90DF90CF90BF90AF90D5
:100170000895833081F028F4813099F08230A9F01D
:1001800008958730A9F08830C9F08430B1F48091A7
:1001900080008F7D03C0809180008F7780938000E6
:1001A000089584B58F7784BD089584B58F7DFBCF86
:1001B0008091B0008F778093B00008958091B00057
:1001C0008F7DF9CF1F93CF93DF93282F30E0F90174
:1001D000E255FF4F8491F901E656FF4FD491F901A2
:1001E000EA57FF4FC491CC23A9F0162F81110E942A
:1001F000B900EC2FF0E0EE0FFF1FEE58FF4FA59176
:10020000B4918FB7F894EC91111108C0D095DE230A
:10021000DC938FBFDF91CF911F910895DE2BF8CF34
:10022000CF93DF9390E0FC01E656FF4F24918A576D
:100230009F4FFC0184918823D1F090E0880F991F93
:10024000FC01E859FF4FA591B491FC01EE58FF4F16
:10025000C591D49161110EC09FB7F8948C91E22F93
:10026000E0958E238C932881E223E8839FBFDF9162
:10027000CF9108958FB7F894EC91E22BEC938FBF58
:10028000F6CF3FB7F8948091290190912A01A0916F
:100290002B01B0912C0126B5A89B05C02F3F19F06A
:1002A0000196A11DB11D3FBFBA2FA92F982F8827F6
:1002B000BC01CD01620F711D811D911D42E0660FD1
:1002C000771F881F991F4A95D1F70895089590E0E8
:1002D00080E008958F929F92AF92BF920F931F93E9
:1002E000CF93DF93CDB7DEB7A1970FB6F894DEBFFB
:1002F0000FBECDBF19A2423008F44AE08E010F5D57
:100300001F4F842E912CB12CA12CA50194010E9489
:100310002C05E62FB901CA01EA3044F5E05DD801A9
:10032000EE938D01232B242B252B79F790E080E091
:10033000109769F0FD0101900020E9F73197AF01B6
:100340004A1B5B0BBD018FE291E00E948C00A196DD
:100350000FB6F894DEBF0FBECDBFDF91CF911F91D6
:100360000F91BF90AF909F908F900895E95CD7CF89
:10037000CF93DF93EC0160E08E810E94E20061E0A8
:100380008E810E94E20060E08E810E94E2008BE894
:1003900091E00197F1F7DF91CF910895CF92DF922D
:1003A000EF92FF920F931F93CF93DF936C017C0129
:1003B00087E0E80EF11CD0E0C0E0062F10E0B801A5
:1003C0000C2E02C0759567950A94E2F76170F701EB
:1003D00081917F010E94E2002196C430D10579F716
:1003E000C601DF91CF911F910F91FF90EF90DF90A9
:1003F000CF900C94B801CF92DF92EF92FF920F93BF
:100400001F93CF93DF93EC01F62E642F8C810E9413
:10041000E2008D818F3F19F060E00E94E2000F2D15
:1004200010E08F8584FF25C06E0187E0C80ED11CC7
:10043000F12CE12CB8010E2C02C0759567950A9439
:10044000E2F76170F60181916F010E94E200FFEF17
:10045000EF1AFF0A88E0E816F10461F7CE01DF9198
:10046000CF911F910F91FF90EF90DF90CF900C9460
:10047000B801B80184E0759567958A95E1F7CE01DA
:100480000E94CE016F2DCE01DF91CF911F910F9170
:10049000FF90EF90DF90CF900C94CE0140E0682F5A
:1004A0008FE291E00C94FB01CF93DF93823029F42B
:1004B00090913E01986090933E018093420110928A
:1004C000430180E48093440180E18093450180E50D
:1004D0008093460161E0809133010E941001809178
:1004E00034018F3F19F061E00E94100161E08091BA
:1004F00035010E941001CFE2D1E09E012F52314020
:1005000080913E0184FD0BC084E090E02196281785
:10051000390744F461E08E810E941001EECF88E03B
:1005200090E0F4CF8BE39DE00197F1F760E08091DC
:1005300033010E94E20060E0809135010E94E200F8
:10054000809134018F3F19F060E00E94E2008091B9
:100550003E0184FD39C063E08FE291E00E94CE014C
:10056000CBE4D6E4CE010197F1F763E08FE291E0AE
:100570000E94CE012197F1F763E08FE291E00E94A3
:10058000CE0183E592E00197F1F762E08FE291E01E
:100590000E94CE0180913E0180620E944E0284E062
:1005A00080933F018CE00E944E0281E00E944E0247
:1005B0008BE39FE10197F1F782E08093400186E0B1
:1005C000DF91CF910C944E0280620E944E028BE428
:1005D00096E40197F1F780913E0180620E944E02FD
:1005E00083E592E00197F1F780913E0180620E94DD
:1005F0004E02D0CF41E00E94FB0181E090E00895DF
:10060000BC01990F880B990B4AE00C946A011F9268
:100610000F920FB60F9211242F933F938F939F93B6
:10062000AF93BF938091250190912601A09127015E
:10063000B09128013091240123E0230F2D3758F584
:100640000196A11DB11D2093240180932501909353
:100650002601A0932701B093280180912901909150
:100660002A01A0912B01B0912C010196A11DB11D71
:100670008093290190932A01A0932B01B0932C0120
:10068000BF91AF919F918F913F912F910F900FBE8E
:100690000F901F90189526E8230F0296A11DB11DFB
:1006A000D2CF789484B5826084BD84B5816084BDE6
:1006B00085B5826085BD85B5816085BD80916E0000
:1006C000816080936E001092810080918100826031
:1006D000809381008091810081608093810080916E
:1006E00080008160809380008091B100846080935D
:1006F000B1008091B00081608093B00080917A0059
:10070000846080937A0080917A00826080937A007E
:1007100080917A00816080937A0080917A0080686D
:1007200080937A001092C10082E00E94540281E01E
:100730000E944E028BE39FE10197F1F7E1E0809187
:1007400042018111E0E0E195F0E0E15DFE4F848936
:1007500080680E944E0240E150E060E171E08FE26B
:1007600091E00E948C0060E084E00E9410012EE97C
:10077000222E20E0322E0AE810E034E0432E512CE5
:10078000612C712CC0E0D0E0E2EBF0E08491F1014B
:10079000F490F801E490E11043C00E9441014B0144
:1007A0005C019CE2C92EDD24D394E12CF12C0E9443
:1007B0004101681979098A099B09683E73408105DE
:1007C0009105A8F3F1E0CF1AD108E108F10828EE6D
:1007D000820E23E0921EA11CB11CC114D104E104BD
:1007E000F10429F70E94A204A30192010E94FA04D5
:1007F0006F5F7F4F8F4F9F4F70932E0160932D013E
:1008000080912D0190912E018330910559F1ECF4E6
:100810008130910511F1029791F482E090E01FC0C0
:1008200081110E94B900EE2DF0E0EE0FFF1FE45899
:10083000FF4FA591B4918C91F82209F4AECF209787
:1008400009F4A2CF0E9400009FCF8430910569F087
:100850000597A9F785E090E002C081E090E00E9452
:100860000003EDCF83E090E0FACF84E090E0F7CF93
:10087000EFE2F1E01382128288E091E091838083BD
:100880008CE084838FEF85838BE086838AE0878387
:1008900089E0808788E0818787E0828713861486D5
:1008A00015861686178681E00C9454028F929F92CB
:1008B000AF92BF92CF92DF92EF92FF92CF93DF93EE
:1008C000EC01688179818A819B81611571058105BF
:1008D000910521F464E279ED8BE597E02DE133EFAA
:1008E00041E050E00E94FA0449015A019B01AC0129
:1008F000A7EAB1E40E9419056B017C01ACEEB4EFEC
:10090000A50194010E942705C60ED71EE81EF91EF8
:10091000F7FE06C081E0C81AD108E10880E8F80AAD
:10092000C882D982EA82FB82C701B6019F77DF9134
:10093000CF91FF90EF90DF90CF90BF90AF909F90BE
:100940008F9008958F929F92AF92BF92CF92DF9235
:10095000EF92FF926091000170910101809102017C
:1009600090910301611571058105910521F464E2FF
:1009700079ED8BE597E02DE133EF41E050E00E9407
:10098000FA0449015A019B01AC01A7EAB1E40E94B3
:1009900019056B017C01ACEEB4EFA50194010E9436
:1009A0002705C60ED71EE81EF91EF7FE06C081E019
:1009B000C81AD108E10880E8F80AC0920001D09274
:1009C0000101E0920201F0920301C701B6019F7795
:1009D000FF90EF90DF90CF90BF90AF909F908F905F
:1009E0000895609300017093010180930201909338
:1009F00003010895052E97FB1EF400940E94110533
:100A000057FD07D00E942C0507FC03D04EF40C9430
:100A1000110550954095309521953F4F4F4F5F4FB1
:100A2000089590958095709561957F4F8F4F9F4F5A
:100A300008950E944E05A59F900DB49F900DA49F10
:100A4000800D911D11240895B7FF0C9419050E9483
:100A50001905821B930B0895A1E21A2EAA1BBB1B3A
:100A6000FD010DC0AA1FBB1FEE1FFF1FA217B3077A
:100A7000E407F50720F0A21BB30BE40BF50B661F90
:100A8000771F881F991F1A9469F760957095809554
:100A900090959B01AC01BD01CF010895A29FB001CB
:100AA000B39FC001A39F700D811D1124911DB29FA2
:100AB000700D811D1124911D0895EE0FFF1F0590EB
:100AC000F491E02D0994F894FFCF0100000000009C
:100AD0000000FA028C00670166016573746120668C
:0C0AE000756E63696F6E616E646F0000DC
:107E0000112484B714BE81FFF0D085E080938100F7
:107E100082E08093C00088E18093C10086E0809377
:107E2000C20080E18093C4008EE0C9D0259A86E02C
:107E300020E33CEF91E0309385002093840096BBD3
:107E4000B09BFECF1D9AA8958150A9F7CC24DD24C4
:107E500088248394B5E0AB2EA1E19A2EF3E0BF2EE7
:107E6000A2D0813461F49FD0082FAFD0023811F036
:107E7000013811F484E001C083E08DD089C08234E0
:107E800011F484E103C0853419F485E0A6D080C0E4
:107E9000853579F488D0E82EFF2485D0082F10E0AE
:107EA000102F00270E291F29000F111F8ED06801E7
:107EB0006FC0863521F484E090D080E0DECF843638
:107EC00009F040C070D06FD0082F6DD080E0C81688
:107ED00080E7D80618F4F601B7BEE895C0E0D1E017
:107EE00062D089930C17E1F7F0E0CF16F0E7DF06D8
:107EF00018F0F601B7BEE89568D007B600FCFDCFD4
:107F0000A601A0E0B1E02C9130E011968C91119780
:107F100090E0982F8827822B932B1296FA010C0160
:107F200087BEE89511244E5F5F4FF1E0A038BF0790
:107F300051F7F601A7BEE89507B600FCFDCF97BE46
:107F4000E89526C08437B1F42ED02DD0F82E2BD052
:107F50003CD0F601EF2C8F010F5F1F4F84911BD097
:107F6000EA94F801C1F70894C11CD11CFA94CF0C13
:107F7000D11C0EC0853739F428D08EE10CD085E9AC
:107F80000AD08FE07ACF813511F488E018D01DD067
:107F900080E101D065CF982F8091C00085FFFCCF94
:107FA0009093C60008958091C00087FFFCCF809118
:107FB000C00084FD01C0A8958091C6000895E0E648
:107FC000F0E098E1908380830895EDDF803219F02E
:107FD00088E0F5DFFFCF84E1DECF1F93182FE3DFCA
:107FE0001150E9F7F2DF1F91089580E0E8DFEE27F6
:047FF000FF270994CA
:027FFE00040479
:00000001FF
