:100000000C9462000C948A000C948A000C948A0070
:100010000C948A000C948A000C948A000C948A0038
:100020000C948A000C948A000C948A000C948A0028
:100030000C948A000C94EF030C948A000C948A00B0
:100040000C94A5030C948A000C948A000C948A00EA
:100050000C948A000C948A000C948A000C948A00F8
:100060000C948A000C948A000000000024002700F1
:100070002A0000000000250028002B0000000000DE
:1000800023002600290004040404040404040202DA
:100090000202020203030303030301020408102007
:1000A0004080010204081020010204081020000012
:1000B0000008000201000003040700000000000027
:1000C0000000280511241FBECFEFD8E0DEBFCDBF52
:1000D00011E0A0E0B1E0E0EEFAE002C005900D9280
:1000E000A834B107D9F721E0A8E4B1E001C01D921E
:1000F000A537B207E1F710E0C2E6D0E004C02197CF
:10010000FE010E946805C136D107C9F70E94160496
:100110000C946E050C940000AF92BF92CF92DF92C8
:10012000EF92FF920F931F93CF93DF936C017B01AC
:100130008B01040F151FEB015E01AE18BF08C0173D
:10014000D10759F06991D601ED91FC910190F081B0
:10015000E02DC6010995892B79F7C501DF91CF9173
:100160001F910F91FF90EF90DF90CF90BF90AF90D5
:100170000895833081F028F4813099F08230A9F01D
:1001800008958730A9F08830C9F08430B1F48091A7
:1001900080008F7D03C0809180008F7780938000E6
:1001A000089584B58F7784BD089584B58F7DFBCF86
:1001B0008091B0008F778093B00008958091B00057
:1001C0008F7DF9CFCF93DF93282F30E0F901E255EF
:1001D000FF4F8491F901E656FF4FD491F901EA5798
:1001E000FF4FC491CC23A1F081110E94B900EC2FE4
:1001F000F0E0EE0FFF1FE458FF4FA591B491EC9192
:10020000ED2381E090E009F480E0DF91CF91089543
:1002100080E090E0FACF1F93CF93DF93282F30E058
:10022000F901E255FF4F8491F901E656FF4FD49151
:10023000F901EA57FF4FC491CC23A9F0162F811181
:100240000E94B900EC2FF0E0EE0FFF1FEE58FF4FB9
:10025000A591B4918FB7F894EC91111108C0D09585
:10026000DE23DC938FBFDF91CF911F910895DE2BAA
:10027000F8CFCF93DF9390E0FC01E656FF4F249137
:100280008A579F4FFC0184918823D1F090E0880F1A
:10029000991FFC01E859FF4FA591B491FC01EE585C
:1002A000FF4FC591D491623071F49FB7F8943C919F
:1002B000822F809583238C93E8812E2B28839FBFE8
:1002C000DF91CF9108958FB7F894EC912E2B2C935A
:1002D0008FBFF6CF3FB7F8948091510190915201B2
:1002E000A0915301B091540126B5A89B05C02F3FA2
:1002F00019F00196A11DB11D3FBFBA2FA92F982F4C
:100300008827BC01CD01620F711D811D911D42E046
:10031000660F771F881F991F4A95D1F70895089592
:1003200090E080E008958F929F92AF92BF920F93DA
:100330001F93CF93DF93CDB7DEB7A1970FB6F89495
:10034000DEBF0FBECDBF19A2423008F44AE08E01D5
:100350000F5D1F4F842E912CB12CA12CA50194016F
:100360000E944605E62FB901CA01EA3044F5E05D76
:10037000D801EE938D01232B242B252B79F790E0C8
:1003800080E0109769F0FD0101900020E9F73197B6
:10039000AF014A1B5B0BBD018DE591E00E948C0013
:1003A000A1960FB6F894DEBF0FBECDBFDF91CF91FF
:1003B0001F910F91BF90AF909F908F900895E95C2F
:1003C000D7CFFC0101900020E9F73197AF01481B1E
:1003D000590BBC018DE591E00C948C00CF93DF9319
:1003E000EC0160E08E810E940B0161E08E810E9431
:1003F0000B0160E08E810E940B018BE891E0019778
:10040000F1F7DF91CF910895CF92DF92EF92FF92B3
:100410000F931F93CF93DF936C017C0187E0E80E6D
:10042000F11CD0E0C0E0062F10E0B8010C2E02C095
:10043000759567950A94E2F76170F70181917F01E4
:100440000E940B012196C430D10579F7C601DF91D6
:10045000CF911F910F91FF90EF90DF90CF900C9470
:10046000EE01CF92DF92EF92FF920F931F93CF9303
:10047000DF93EC01F62E642F8C810E940B018D819D
:100480008F3F19F060E00E940B010F2D10E08F8567
:1004900084FF25C06E0187E0C80ED11CF12CE12C31
:1004A000B8010E2C02C0759567950A94E2F7617049
:1004B000F60181916F010E940B01FFEFEF1AFF0A15
:1004C00088E0E816F10461F7CE01DF91CF911F912A
:1004D0000F91FF90EF90DF90CF900C94EE01B80158
:1004E00084E0759567958A95E1F7CE010E94040234
:1004F0006F2DCE01DF91CF911F910F91FF90EF9063
:10050000DF90CF900C94040240E0682F8DE591E0DD
:100510000C94310281E00E9484028BE39FE10197F9
:10052000F1F70895CF93DF93823029F490916C0115
:10053000986090936C01809370011092710180E437
:100540008093720180E18093730180E58093740150
:1005500061E0809161010E943901809162018F3FC9
:1005600019F061E00E94390161E0809163010E940D
:100570003901CDE5D1E09E012D55314080916C01CE
:1005800084FD0BC084E090E021962817390744F4DD
:1005900061E08E810E943901EECF88E090E0F4CFD7
:1005A0008BE39DE00197F1F760E0809161010E948B
:1005B0000B0160E0809163010E940B018091620158
:1005C0008F3F19F060E00E940B0180916C0184FD67
:1005D00034C063E08DE591E00E940402CBE4D6E4F0
:1005E000CE010197F1F763E08DE591E00E940402EE
:1005F0002197F1F763E08DE591E00E94040283E525
:1006000092E00197F1F762E08DE591E00E9404022B
:1006100080916C0180620E94840284E080936D016D
:100620008CE00E9484020E948A0282E080936E0124
:1006300086E0DF91CF910C94840280620E94840254
:100640008BE496E40197F1F780916C0180620E943F
:10065000840283E592E00197F1F780916C0180625A
:100660000E948402D5CF90917001691710F06FEF4E
:10067000690FE62FF0E0E35AFE4F9489890F8068F6
:100680000C94840241E00E94310281E090E00895E0
:10069000CF92DF92EF92FF926B017C0141E06DE21D
:1006A0008DE591E00E94310266277727CB016C1916
:1006B0007D098E099F094AE00E9493010196FF90EF
:1006C000EF90DF90CF900895CF93DF9380914A0110
:1006D00090914B019C012F5F3F4F30934B01209332
:1006E0004A01C3E0D0E0C81BD90BD0934901C093A5
:1006F000480161E08AE00E943303BE01DD0F880BF0
:10070000990B97FF1BC00E94480361E086E00E949E
:100710000B0180914801909149011816190694F037
:100720000E948A0282E090E090935A0180935901DE
:1007300060E086E0DF91CF910C940B014AE00E94CB
:100740009301E3CFDF91CF9108951F920F920FB6DF
:100750000F9211242F933F938F939F93AF93BF9347
:1007600080914D0190914E01A0914F01B0915001A7
:1007700030914C0123E0230F2D3758F50196A11D30
:10078000B11D20934C0180934D0190934E01A09395
:100790004F01B09350018091510190915201A0916D
:1007A0005301B09154010196A11DB11D80935101D7
:1007B00090935201A0935301B0935401BF91AF9114
:1007C0009F918F913F912F910F900FBE0F901F908F
:1007D000189526E8230F0296A11DB11DD2CF1F92B6
:1007E0000F920FB60F9211242F933F934F935F9365
:1007F0006F937F938F939F93AF93BF93EF93FF93E9
:10080000E0915701F09158010995FF91EF91BF9147
:10081000AF919F918F917F916F915F914F913F9198
:100820002F910F900FBE0F901F901895789484B55C
:10083000826084BD84B5816084BD85B5826085BDDC
:1008400085B5816085BD80916E00816080936E006A
:10085000109281008091810082608093810080915C
:10086000810081608093810080918000816080930D
:1008700080008091B10084608093B1008091B000CD
:1008800081608093B00080917A00846080937A00C8
:1008900080917A00826080937A0080917A008160F2
:1008A00080937A0080917A00806880937A00109219
:1008B000C10082E00E94920262E085E00E9439015C
:1008C00062E084E00E94390161E086E00E94390123
:1008D00092E1892E9AE7992E24E1322E2224239444
:1008E00000E010E034E6A32E33E0B32EC1E0D0E008
:1008F00080915B0190915C01892B09F069C00E9495
:100900008A0260E080E00E9433038CE091E00E9464
:10091000E10185E00E94E200892BF1F5809155010B
:1009200090915601019690935601809355010E9433
:100930006A012B013C018CE2C82EDD24D394E12C0A
:10094000F12C0E946A016419750986099709683EAD
:10095000734081059105A8F321E0C21AD108E1088E
:10096000F10888EE480E83E0581E611C711CC1140A
:10097000D104E104F10429F761E080E00E9433032F
:100980006091550170915601072E000C880B990B50
:1009900097FF1AC00E94480384E00E94E20001977A
:1009A00009F4B7CF84E00E94E200892B31F4D093A0
:1009B0005C01C0935B010E948A020115110509F4D4
:1009C00097CF0E94000094CF4AE00E949301E4CFA9
:1009D0008091590190915A0181309105D1F0823076
:1009E000910569F1892B49F760E080E00E943303AB
:1009F0008CE191E00E94E10161E080E00E9433031C
:100A00008CE291E00E94E101D0935A01C093590118
:100A1000D4CF80E180938100109280009092870073
:100A20008092860030928100B0925801A0925701C6
:100A300020926F0060E086E00E940B01BECF60E074
:100A400080E00E94330386E391E00E94E101F2CF4F
:100A5000EDE5F1E01382128284E091E091838083DE
:100A60008CE084838FEF85838BE086838AE08783A5
:100A700089E0808788E0818787E0828713861486F3
:100A800015861686178681E00C949202A1E21A2E32
:100A9000AA1BBB1BFD010DC0AA1FBB1FEE1FFF1F22
:100AA000A217B307E407F50720F0A21BB30BE40B72
:100AB000F50B661F771F881F991F1A9469F76095B9
:100AC0007095809590959B01AC01BD01CF01089573
:100AD000EE0FFF1F0590F491E02D0994F894FFCFDD
:100AE0000000000042038C0090018F0143616E748E
:100AF000206465207669616A65733A00456C206AF6
:100B00007565676F20696E69636961002020202028
:100B100020656E3A20002020202041204A55474180
:080B20005221202020200000DA
:00000001FF
