:020000040000FA
:100000000C945D000C9485000C9485000C94850084
:100010000C9485000C9485000C9485000C9485004C
:100020000C9485000C9485000C9485000C9485003C
:100030000C9485000C9485000C9485000C9485002C
:100040000C948C020C9485000C9485000C94850013
:100050000C9485000C9485000C9485000C9485000C
:100060000C9485000C9485000000000024002700FB
:100070002A0000000000250028002B0004040404CE
:100080000404040402020202020203030303030342
:10009000010204081020408001020408102001021F
:1000A00004081020000000080002010000030407FB
:1000B0000000000000000000B80311241FBECFEFB5
:1000C000D8E0DEBFCDBF11E0A0E0B1E0EAECF9E09E
:1000D00002C005900D92A031B107D9F721E0A0E14F
:1000E000B1E001C01D92A533B207E1F710E0CDE504
:1000F000D0E004C02197FE010E94DD04CC35D10779
:10010000C9F70E94D6020C94E3040C940000AF924D
:10011000BF92CF92DF92EF92FF920F931F93CF93F4
:10012000DF936C017B018B01040F151FEB015E0156
:10013000AE18BF08C017D10759F06991D601ED91EB
:10014000FC910190F081E02DC6010995892B79F78A
:10015000C501DF91CF911F910F91FF90EF90DF903C
:10016000CF90BF90AF90089590E0FC01EC55FF4F09
:100170002491FC01E057FF4F3491FC01E458FF4FFC
:10018000E491EE23C9F0222339F0233001F1A8F4E1
:10019000213019F1223029F1F0E0EE0FFF1FEE5867
:1001A000FF4FA591B4918FB7F894EC91611126C0DF
:1001B00030953E233C938FBF08952730A9F0283017
:1001C000C9F0243049F7809180008F7D03C0809171
:1001D00080008F7780938000DFCF84B58F7784BDD8
:1001E000DBCF84B58F7DFBCF8091B0008F7780937C
:1001F000B000D2CF8091B0008F7DF9CF3E2BDACF07
:10020000CF93DF9390E0FC01E057FF4F2491845897
:100210009F4FFC0184918823D1F090E0880F991FB3
:10022000FC01E859FF4FA591B491FC01EE58FF4F36
:10023000C591D49161110EC09FB7F8948C91E22FB3
:10024000E0958E238C932881E223E8839FBFDF9182
:10025000CF9108958FB7F894EC91E22BEC938FBF78
:10026000F6CF089590E080E00895CF93DF93EC01FE
:1002700060E08E810E94B40061E08E810E94B40033
:1002800060E08E810E94B4008BE891E00197F1F765
:10029000DF91CF910895CF92DF92EF92FF920F936B
:1002A0001F93CF93DF936C017C0187E0E80EF11C74
:1002B000D0E0C0E0062F10E0B8010C2E02C075950A
:1002C00067950A94E2F76170F70181917F010E94BE
:1002D000B4002196C430D10579F7C601DF91CF91E2
:1002E0001F910F91FF90EF90DF90CF900C9435010C
:1002F000CF92DF92EF92FF920F931F93CF93DF93F2
:10030000EC01F62E642F8C810E94B4008D818F3F0A
:1003100019F060E00E94B4000F2D10E08F8584FF7B
:1003200025C06E0187E0C80ED11CF12CE12CB8016C
:100330000E2C02C0759567950A94E2F76170F6017C
:1003400081916F010E94B400FFEFEF1AFF0A88E06D
:10035000E816F10461F7CE01DF91CF911F910F9163
:10036000FF90EF90DF90CF900C943501B80184E0BE
:10037000759567958A95E1F7CE010E944B016F2D27
:10038000CE01DF91CF911F910F91FF90EF90DF9001
:10039000CF900C944B01CF93DF93823029F490914E
:1003A0002C01986090932C018093300110923101C0
:1003B00080E48093320180E18093330180E5809373
:1003C000340161E0809121010E94000180912201AD
:1003D0008F3F19F061E00E94000161E080912301EC
:1003E0000E940001CDE1D1E09E012D51314080916C
:1003F0002C0184FD0BC084E090E02196281739077A
:1004000044F461E08E810E940001EECF88E090E02C
:10041000F4CF8BE39DE00197F1F760E0809121013B
:100420000E94B40060E0809123010E94B40080919A
:1004300022018F3F19F060E00E94B40060912C010E
:1004400064FD45C063E08DE191E00E944B01CBE487
:10045000D6E4CE010197F1F763E08DE191E00E94CF
:100460004B012197F1F763E08DE191E00E944B0190
:1004700083E592E00197F1F762E08DE191E00E945F
:100480004B0160912C01606240E08DE191E00E949F
:10049000780184E080932D0140E06CE08DE191E0F3
:1004A0000E94780140E061E08DE191E00E947801D6
:1004B0008BE39FE10197F1F782E080932E0140E00A
:1004C00066E08DE191E0DF91CF910C94780160625C
:1004D00040E08DE191E00E9478018BE496E4019781
:1004E000F1F760912C01606240E08DE191E00E94A3
:1004F000780183E592E00197F1F760912C01606249
:1005000040E08DE191E00E947801BBCF41E00E9484
:10051000780181E090E008951F920F920FB60F923C
:1005200011242F933F938F939F93AF93BF93809109
:10053000150190911601A0911701B0911801309109
:10054000140123E0230F2D3758F50196A11DB11D8D
:10055000209314018093150190931601A093170125
:10056000B09318018091100190911101A091120196
:10057000B09113010196A11DB11D809310019093BC
:100580001101A0931201B0931301BF91AF919F91FC
:100590008F913F912F910F900FBE0F901F90189544
:1005A00026E8230F0296A11DB11DD2CF789484B501
:1005B000826084BD84B5816084BD85B5826085BD5F
:1005C00085B5816085BD80916E00816080936E00ED
:1005D00010928100809181008260809381008091DF
:1005E0008100816080938100809180008160809390
:1005F00080008091B10084608093B1008091B00050
:1006000081608093B00080917A00846080937A004A
:1006100080917A00826080937A0080917A00816074
:1006200080937A0080917A00806880937A0010929B
:10063000C10082E00E94CB0161E088E00E940001DD
:1006400061E089E00E94000161E08AE00E9400010F
:1006500061E08BE00E94000161E08CE00E940001FB
:1006600060E084E00E94000184E0C82ED12CE12CDF
:10067000F12C00E010E00E942204A70196010E94E4
:100680007A046F5F7F4F8F4F9F4F70931C01609371
:100690001B0120911B0130911C0180911901909147
:1006A0001A012817390739F3C0911B01D0911C0199
:1006B000C330D10509F444C064F4C130D10509F157
:1006C000C230D105B9F101151105A9F20E9400004F
:1006D000D2CFC430D105F1F1C530D105A1F760E02A
:1006E00088E00E94B40060E089E00E94B40060E00D
:1006F0008AE00E94B40060E08BE00E94B40061E0F8
:1007000011C061E088E00E94B40060E089E00E94CE
:10071000B40060E08AE00E94B40060E08BE00E94D8
:10072000B40060E08CE00E94B400D0931A01C09342
:100730001901C9CF60E088E00E94B40061E0E6CF13
:1007400060E088E00E94B40060E089E00E94B400AC
:1007500061E0E0CF60E088E00E94B40060E089E002
:100760000E94B40060E08AE00E94B40061E0D6CF4D
:10077000EDE1F1E01382128288E091E091838083C1
:100780008CE084838FEF85838BE086838AE0878388
:1007900089E0808788E0818787E0828713861486D6
:1007A00015861686178681E00C94CB018F929F9256
:1007B000AF92BF92CF92DF92EF92FF92CF93DF93EF
:1007C000EC01688179818A819B81611571058105C0
:1007D000910521F464E279ED8BE597E02DE133EFAB
:1007E00041E050E00E947A0449015A019B01AC01AA
:1007F000A7EAB1E40E9499046B017C01ACEEB4EF6E
:10080000A50194010E94A704C60ED71EE81EF91E7A
:10081000F7FE06C081E0C81AD108E10880E8F80AAE
:10082000C882D982EA82FB82C701B6019F77DF9135
:10083000CF91FF90EF90DF90CF90BF90AF909F90BF
:100840008F9008958F929F92AF92BF92CF92DF9236
:10085000EF92FF926091000170910101809102017D
:1008600090910301611571058105910521F464E200
:1008700079ED8BE597E02DE133EF41E050E00E9408
:100880007A0449015A019B01AC01A7EAB1E40E9434
:1008900099046B017C01ACEEB4EFA50194010E94B8
:1008A000A704C60ED71EE81EF91EF7FE06C081E09B
:1008B000C81AD108E10880E8F80AC0920001D09275
:1008C0000101E0920201F0920301C701B6019F7796
:1008D000FF90EF90DF90CF90BF90AF909F908F9060
:1008E0000895609300017093010180930201909339
:1008F00003010895052E97FB1EF400940E949104B5
:1009000057FD07D00E94AC0407FC03D04EF40C94B2
:10091000910450954095309521953F4F4F4F5F4F33
:10092000089590958095709561957F4F8F4F9F4F5B
:1009300008950E94CE04A59F900DB49F900DA49F92
:10094000800D911D11240895B7FF0C9499040E9405
:100950009904821B930B0895A1E21A2EAA1BBB1BBC
:10096000FD010DC0AA1FBB1FEE1FFF1FA217B3077B
:10097000E407F50720F0A21BB30BE40BF50B661F91
:10098000771F881F991F1A9469F760957095809555
:1009900090959B01AC01BD01CF010895A29FB001CC
:1009A000B39FC001A39F700D811D1124911DB29FA3
:1009B000700D811D1124911D0895EE0FFF1F0590EC
:1009C000F491E02D0994F894FFCF0100000000009D
:0A09D00000008602870032013101A9
:107E0000112484B714BE81FFF0D085E080938100F7
:107E100082E08093C00088E18093C10086E0809377
:107E2000C20080E18093C4008EE0C9D0259A86E02C
:107E300020E33CEF91E0309385002093840096BBD3
:107E4000B09BFECF1D9AA8958150A9F7CC24DD24C4
:107E500088248394B5E0AB2EA1E19A2EF3E0BF2EE7
:107E6000A2D0813461F49FD0082FAFD0023811F036
:107E7000013811F484E001C083E08DD089C08234E0
:107E800011F484E103C0853419F485E0A6D080C0E4
:107E9000853579F488D0E82EFF2485D0082F10E0AE
:107EA000102F00270E291F29000F111F8ED06801E7
:107EB0006FC0863521F484E090D080E0DECF843638
:107EC00009F040C070D06FD0082F6DD080E0C81688
:107ED00080E7D80618F4F601B7BEE895C0E0D1E017
:107EE00062D089930C17E1F7F0E0CF16F0E7DF06D8
:107EF00018F0F601B7BEE89568D007B600FCFDCFD4
:107F0000A601A0E0B1E02C9130E011968C91119780
:107F100090E0982F8827822B932B1296FA010C0160
:107F200087BEE89511244E5F5F4FF1E0A038BF0790
:107F300051F7F601A7BEE89507B600FCFDCF97BE46
:107F4000E89526C08437B1F42ED02DD0F82E2BD052
:107F50003CD0F601EF2C8F010F5F1F4F84911BD097
:107F6000EA94F801C1F70894C11CD11CFA94CF0C13
:107F7000D11C0EC0853739F428D08EE10CD085E9AC
:107F80000AD08FE07ACF813511F488E018D01DD067
:107F900080E101D065CF982F8091C00085FFFCCF94
:107FA0009093C60008958091C00087FFFCCF809118
:107FB000C00084FD01C0A8958091C6000895E0E648
:107FC000F0E098E1908380830895EDDF803219F02E
:107FD00088E0F5DFFFCF84E1DECF1F93182FE3DFCA
:107FE0001150E9F7F2DF1F91089580E0E8DFEE27F6
:047FF000FF270994CA
:027FFE00040479
:00000001FF
