:020000040000FA
:100000000C9462000C948A000C948A000C948A0070
:100010000C948A000C948A000C948A000C948A0038
:100020000C948A000C948A000C948A000C948A0028
:100030000C948A000C948A000C948A000C948A0018
:100040000C9455050C948A000C9423050C94FD0423
:100050000C948A000C948A000C948A000C948A00F8
:100060000C949F050C948A000000000024002700D7
:100070002A0000000000250028002B0000000000DE
:1000800023002600290004040404040404040202DA
:100090000202020203030303030301020408102007
:1000A0004080010204081020010204081020000012
:1000B0000008000201000003040700000000000027
:1000C0000000BE0611241FBECFEFD8E0DEBFCDBFBB
:1000D00011E0A0E0B1E0E2E9F3E102C005900D9289
:1000E000A038B107D9F723E0A0E8B1E001C01D9224
:1000F000A130B207E1F710E0C2E6D0E004C02197DA
:10010000FE010E94C109C136D107C9F70E94060746
:100110000C94C7090C94000008950895AF92BF9203
:10012000CF92DF92EF92FF920F931F93CF93DF93C3
:100130006C017B018B01040F151FEB015E01AE18F2
:10014000BF08C017D10759F06991D601ED91FC9114
:100150000190F081E02DC6010995892B79F7C50141
:10016000DF91CF911F910F91FF90EF90DF90CF9093
:10017000BF90AF900895FC01538D448D252F30E042
:10018000842F90E0821B930B541710F0CF960895A4
:1001900001970895FC01918D828D981761F0A28DD1
:1001A000AE0FBF2FB11D5D968C91928D9F5F9F7397
:1001B000928F90E008958FEF9FEF0895FC01918D4D
:1001C000828D981731F0828DE80FF11D858D90E0BA
:1001D00008958FEF9FEF0895FC01918D228D892F57
:1001E00090E0805C9F4F821B91098F73992708953F
:1001F0008CE492E00E94EC0021E0892B09F420E0DD
:10020000822F089580E090E0892B29F00E94F80069
:1002100081110C9400000895FC01A48DA80FB92F42
:10022000B11DA35ABF4F2C91848D90E001968F731E
:100230009927848FA689B7892C93A089B1898C913D
:10024000837080648C93938D848D981306C002888C
:10025000F389E02D80818F7D80830895EF92FF9256
:100260000F931F93CF93DF93EC0181E0888F9B8DD9
:100270008C8D98131AC0E889F989808185FF15C093
:100280009FB7F894EE89FF896083E889F9898081B6
:100290008370806480839FBF81E090E0DF91CF9185
:1002A0001F910F91FF90EF900895F62E0B8D10E0A7
:1002B0000F5F1F4F0F731127E02E8C8D8E110CC016
:1002C0000FB607FCFACFE889F989808185FFF5CF61
:1002D000CE010E940C01F1CFEB8DEC0FFD2FF11D33
:1002E000E35AFF4FF0829FB7F8940B8FEA89FB899E
:1002F00080818062CFCFCF93DF93EC01888D8823FC
:10030000B9F0AA89BB89E889F9898C9185FD03C078
:10031000808186FD0DC00FB607FCF7CF8C9185FF5D
:10032000F2CF808185FFEDCFCE010E940C01E9CF95
:10033000DF91CF910895833081F028F4813099F0D6
:100340008230A9F008958730A9F08830C9F0843050
:10035000B1F4809180008F7D03C0809180008F7701
:1003600080938000089584B58F7784BD089584B507
:100370008F7DFBCF8091B0008F778093B000089580
:100380008091B0008F7DF9CF1F93CF93DF93282FFB
:1003900030E0F901E255FF4F8491F901E656FF4F35
:1003A000D491F901EA57FF4FC491CC23A9F0162F3D
:1003B00081110E949B01EC2FF0E0EE0FFF1FEE5821
:1003C000FF4FA591B4918FB7F894EC91111108C02B
:1003D000D095DE23DC938FBFDF91CF911F910895DD
:1003E000DE2BF8CFCF93DF9390E0FC01E656FF4F72
:1003F00024918A579F4FFC0184918823D1F090E08B
:10040000880F991FFC01E859FF4FA591B491FC0199
:10041000EE58FF4FC591D49161110EC09FB7F8946B
:100420008C91E22FE0958E238C932881E223E88340
:100430009FBFDF91CF9108958FB7F894EC91E22B95
:10044000EC938FBFF6CF3FB7F89480913D02909127
:100450003E02A0913F02B091400226B5A89B05C084
:100460002F3F19F00196A11DB11D3FBFBA2FA92F33
:10047000982F8827BC01CD01620F711D811D911D30
:1004800042E0660F771F881F991F4A95D1F708959C
:100490008F929F92AF92BF92CF92DF92EF92FF9294
:1004A0004B015C010E9423026B017C010E9423022C
:1004B0006C197D098E099F09683E7340810591057D
:1004C000A8F321E0821A9108A108B10888EEC80EAD
:1004D00083E0D81EE11CF11C81149104A104B10435
:1004E00029F7FF90EF90DF90CF90BF90AF909F9053
:1004F0008F90089508952091C701260F3327331F49
:1005000021323105ECF420911002FC0190E080E0F2
:10051000243069F082E00895A091C7012191AC01D7
:1005200049555E4FA40FB52FB11D2C930196861728
:1005300098F38091C701680F6093C70180E0089528
:1005400081E008951092100281E080930F021092D2
:10055000EA0161E082E10E94C40161E083E10E945E
:10056000C401E9EBF0E080818E7F808380818D7F04
:10057000808388E48093B80085E48093BC0008956C
:10058000CF93DF9391E09093A6018823B9F0C091B7
:10059000B800D091BA008091BC008A7B8093BC00E7
:1005A00060E082E10E94C40160E083E10E94C40136
:1005B0000E94A202D093BA00C093B800DF91CF91FD
:1005C00008950895E091480280914702E81730F4B9
:1005D000F0E0EA57FE4F808190E008958FEF9FEFA3
:1005E000089590914802809147022FEF3FEF9817AE
:1005F00048F4E92FF0E0EA57FE4F208130E09F5F9A
:1006000090934802C9010895809147029091480251
:10061000891B990B0895CF92DF92EF92FF920F936F
:100620001F93CF93DF937C01CB018A0120911602A7
:10063000222389F0EB016B01C40ED51ECC15DD051C
:1006400069F06991D701ED91FC910190F081E02D65
:10065000C7010995F3CF642F0E947B02C801DF9187
:10066000CF911F910F91FF90EF90DF90CF90089561
:10067000CF93DF931F92CDB7DEB769832091160227
:100680002223F9F020914502203258F021E030E099
:10069000FC013383228390E080E00F90DF91CF91C3
:1006A000089580914602E82FF0E0E95EFD4F9981C0
:1006B00090838F5F809346028093450281E090E0B3
:1006C000ECCF61E0CE0101960E947B02F7CFCF9282
:1006D000DF92EF92FF920F931F93CF93DF93FC0172
:1006E000C48121E020931602C09337021092460283
:1006F000109245028385682B89EE92E00E943803B0
:10070000D0914502D13208F092C00E9423026B01C1
:100710007C0180911002811165C082E080931002FB
:1007200081E080930F028FEF80930E0210920D02F2
:10073000D0930C02A7E1B2E0ECEEF1E080E0D81338
:1007400085C01092EB018091EB01CC0FC82BC093B8
:10075000EB018091EA01813009F07CC01092EA013E
:100760000E9423026B017C018091EB018093BB000E
:100770008091120290911302A0911402B09115027F
:10078000892B8A2B8B2B99F00E9423020091120255
:100790001091130220911402309115026C197D09F9
:1007A0008E099F090617170728073907E0F180917E
:1007B000BC0083FDD9CF85EC8093BC000E9423024E
:1007C0006B017C0180911002823009F445C0809158
:1007D0000E028F3F61F180910E02803241F18091D3
:1007E0000E0225C08091120290911302A091140272
:1007F000B0911502892B8A2B8B2B09F48ACF0E948A
:1008000023020091120210911302209114023091E0
:1008100015026C197D098E099F090617170728070D
:10082000390708F076CF809111020E94C002109221
:1008300046021092450210921602DF91CF911F914D
:100840000F91FF90EF90DF90CF9008959D9191933D
:100850008F5F75CF85EEB0CF809112029091130219
:10086000A0911402B0911502892B8A2B8B2B09F4CD
:10087000A9CF0E942302009112021091130220912D
:100880001402309115026C197D098E099F09061713
:1008900017072807390708F095CFC5CF90E080E00B
:1008A0000895FC0101900020E9F73197AF01481B42
:1008B000590BBC0185EF92E00C948E000F931F93AF
:1008C000CF938C01C62F0E9467036C2F6460C80110
:1008D0000E9467036C2F6B7FC8010E94670383EC43
:1008E00090E00197F1F7CF911F910F9108950F9329
:1008F0001F93CF93DF938C01D62FC42F607F642B7F
:100900000E945E0480E1D89FB00111246C2BC801C5
:10091000DF91CF911F910F910C945E04CF93DF93E1
:10092000CDB7DEB728970FB6F894DEBF0FBECDBFA8
:1009300098E0E4E0F1E0DE01119601900D929A95C5
:10094000E1F79091FD02981708F48FEF90E0880F7F
:10095000991F21E030E02C0F3D1F820F931FFC01F7
:100960006081606840E085EF92E028960FB6F894C9
:10097000DEBF0FBECDBFDF91CF910C94770441E075
:100980000E94770481E090E0089585ED8093BC009B
:100990008091120290911302A0911402B09115025D
:1009A0000796A11DB11D23E0B695A795979587954C
:1009B0002A95D1F72091BC0024FD03C010921002AB
:1009C00008954091120250911302609114027091A7
:1009D0001502452B462B472B69F30097A105B1055E
:1009E00041F025E32A95F1F700000197A109B1092B
:1009F000E1CF809111020C94C0021F920F920FB6AA
:100A00000F9211242F933F934F935F936F937F9394
:100A10008F939F93AF93BF93EF93FF938CE492E0F8
:100A20000E940C01FF91EF91BF91AF919F918F9127
:100A30007F916F915F914F913F912F910F900FBEDA
:100A40000F901F9018951F920F920FB60F921124BE
:100A50002F938F939F93EF93FF93E0915C02F0911C
:100A60005D028081E0916202F091630282FD1BC011
:100A70009081809165028F5F8F732091660282174B
:100A800041F0E0916502F0E0E45BFD4F958F8093CB
:100A90006502FF91EF919F918F912F910F900FBE63
:100AA0000F901F9018958081F4CF1F920F920FB670
:100AB0000F9211242F933F938F939F93AF93BF93E4
:100AC0008091390290913A02A0913B02B0913C0290
:100AD0003091380223E0230F2D3758F50196A11DE0
:100AE000B11D209338028093390290933A02A0936B
:100AF0003B02B0933C0280913D0290913E02A09156
:100B00003F02B09140020196A11DB11D80933D02AC
:100B100090933E02A0933F02B0934002BF91AF91E9
:100B20009F918F913F912F910F900FBE0F901F902B
:100B3000189526E8230F0296A11DB11DD2CF1F9252
:100B40000F920FB60F9211242F933F934F935F9301
:100B50006F937F938F939F93AF93BF93EF93FF9385
:100B60008091B900887F803609F44AC0F0F5883258
:100B700009F4A7C018F5803109F49BC0B8F48823A4
:100B800009F4F9C0883009F494C0FF91EF91BF9146
:100B9000AF919F918F917F916F915F914F913F9115
:100BA0002F910F900FBE0F901F901895883109F468
:100BB00088C0803251F780930E0214C0803409F44B
:100BC0009DC040F48033B9F38833F9F680930E0268
:100BD00085ECB0C0803509F485C0883509F496C02D
:100BE000883499F60E94C504D0CF883909F48CC0A6
:100BF00038F5883729F050F4883611F0803729F617
:100C000083E0809310021092E90157C0883809F4FC
:100C10007BC0803919F0803809F0B7CF8091E901A5
:100C2000803208F071C0E091E90181E08E0F80937D
:100C3000E9018091BB00F0E0E753FE4F80833DC0A7
:100C4000803B39F0E0F4803A09F479C0883A09F041
:100C50009CCF84E0809310021092C8011092C701CB
:100C6000E0914302F091440209958091C7018111FE
:100C70000FC081E08093C7011092A70109C0803C9A
:100C800009F4A6CF883C09F4A3CF883B09F07DCFB7
:100C9000E091C80181E08E0F8093C801F0E0E95532
:100CA000FE4F80818093BB009091C8018091C70165
:100CB00029C08091EB018093BB0085EC8093BC0040
:100CC00064CF90910D0280910C02981758F5E09135
:100CD0000D0281E08E0F80930D02F0E0E451FE4F93
:100CE0008081E9CFE0910D0281E08E0F80930D02AB
:100CF0008091BB00F0E0E451FE4F808390910D02A3
:100D000080910C029817C8F285E8D8CFE0910D02C7
:100D100081E08E0F80930D028091BB00F0E0E451E2
:100D2000FE4F808380910F0281115CCF81E0809320
:100D3000EA0184EA8093BC001092100226CF85EC71
:100D40008093BC00109210028091E901803230F44F
:100D5000E091E901F0E0E753FE4F10826091E90174
:100D600070E0E0914102F091420289EC91E0099536
:100D70001092E9010ACF10920E0234CFECE4F2E0B7
:100D80001382128288EE93E0A0E0B0E08483958322
:100D9000A683B78320E131E03183208325EC30E066
:100DA0003587248724EC30E03787268720EC30E035
:100DB000318B208B21EC30E0338B228B22EC30E026
:100DC000358B248B26EC30E0378B268B118E128EE0
:100DD000138E148EE9EEF2E01382128284839583DF
:100DE000A683B78382E291E091838083E5EFF2E00E
:100DF0001382128284E391E09183808387E284836B
:100E000080E1818782E0828713860895789484B593
:100E1000826084BD84B5816084BD85B5826085BDF6
:100E200085B5816085BD80916E00816080936E0084
:100E30001092810080918100826080938100809176
:100E40008100816080938100809180008160809327
:100E500080008091B10084608093B1008091B000E7
:100E600081608093B00080917A00846080937A00E2
:100E700080917A00826080937A0080917A0081600C
:100E800080937A0080917A00806880937A00109233
:100E9000C100E0915C02F0915D0282E08083E0910C
:100EA0005802F09159021082E0915A02F0915B02CF
:100EB0008FEC808310926402E0916002F0916102F5
:100EC00086E08083E0915E02F0915F028081806124
:100ED0008083E0915E02F0915F0280818860808370
:100EE000E0915E02F0915F02808180688083E091F2
:100EF0005E02F0915F0280818F7D808310924802B4
:100F00001092470210924602109245020E94A202DD
:100F10008CE890E090934402809343028DE890E047
:100F200090934202809341021092FA028091FF0254
:100F3000823018F098E09093FA028093FD0262E309
:100F400070E080E090E00E9448026091000385EF2D
:100F500092E00E94670368EE73E080E090E00E94F8
:100F6000480260E385EF92E00E945E04CBE4D6E4A1
:100F7000CE010197F1F760E385EF92E00E945E04F5
:100F80002197F1F760E385EF92E00E945E0483E52C
:100F900092E00197F1F760E285EF92E00E945E0433
:100FA0006091FA02606240E085EF92E00E9477046F
:100FB00084E08093FB0240E06CE085EF92E00E94C9
:100FC000770440E061E085EF92E00E947704CBE394
:100FD000DFE1CE010197F1F782E08093FC0240E06F
:100FE00066E085EF92E00E94770440E062E085EFE2
:100FF00092E00E947704CE010197F1F788E0809398
:10100000000360E085EF92E00E94670380E00E94A9
:101010008E048CE391E00E94510481E00E948E04D2
:101020008DE491E00E94510468EE73E080E090E06E
:101030000E94480240E061E085EF92E00E94770460
:101040002197F1F780E00E948E048EE591E00E94E6
:10105000510481E00E948E048FE691E00E945104C9
:1010600068EE73E080E090E00E94480260E08FE06C
:101070000E94F20161E088E00E94F20161E08DE0EF
:101080000E94F20161E08CE00E94F2010DEB10E0A1
:1010900099EAE92E90E0F92E25E9C22E20E0D22E21
:1010A00035E0432E512C612C712C88248394912C93
:1010B00050E0A52E50E0B52EF8018491F701C491BF
:1010C000F601D491DD2309F449C081110E949B01EE
:1010D000ED2FF0E0EE0FFF1FE458FF4FA591B49104
:1010E0008C91C823D9F16CE271E080E090E00E941D
:1010F00048020E940609A30192010E945E097093B2
:101100004B0260934A021092490280914A029091E8
:101110004B02940102C0220F331F8A95E2F72093FD
:10112000490260E088E00E94C401D0914902C8E011
:101130006D2F661F6627661F8CE00E94C401DD0FBD
:1011400061E08DE00E94C40160E08DE00E94C40176
:10115000C15071F761E088E00E94C401A114B1049C
:1011600009F4AACF0E94F800882309F4A5CF0E94B1
:101170000000A2CF8F929F92AF92BF92CF92DF9248
:10118000EF92FF92CF93DF93EC01688179818A819E
:101190009B81611571058105910521F464E279ED6A
:1011A0008BE597E02DE133EF41E050E00E945E09CE
:1011B00049015A019B01AC01A7EAB1E40E947D09F3
:1011C0006B017C01ACEEB4EFA50194010E948B0988
:1011D000C60ED71EE81EF91EF7FE06C081E0C81A2B
:1011E000D108E10880E8F80AC882D982EA82FB8245
:1011F000C701B6019F77DF91CF91FF90EF90DF900D
:10120000CF90BF90AF909F908F9008958F929F92B4
:10121000AF92BF92CF92DF92EF92FF926091000166
:101220007091010180910201909103016115710596
:101230008105910521F464E279ED8BE597E02DE1DC
:1012400033EF41E050E00E945E0949015A019B01E1
:10125000AC01A7EAB1E40E947D096B017C01ACEE10
:10126000B4EFA50194010E948B09C60ED71EE81E9B
:10127000F91EF7FE06C081E0C81AD108E10880E82F
:10128000F80AC0920001D0920101E0920201F092AE
:101290000301C701B6019F77FF90EF90DF90CF90D9
:1012A000BF90AF909F908F900895609300017093CE
:1012B000010180930201909303010895052E97FB8D
:1012C0001EF400940E94750957FD07D00E949009F2
:1012D00007FC03D04EF40C94750950954095309559
:1012E00021953F4F4F4F5F4F089590958095709592
:1012F00061957F4F8F4F9F4F08950E94B209A59F20
:10130000900DB49F900DA49F800D911D1124089500
:10131000B7FF0C947D090E947D09821B930B0895F1
:10132000A1E21A2EAA1BBB1BFD010DC0AA1FBB1FE9
:10133000EE1FFF1FA217B307E407F50720F0A21B5B
:10134000B30BE40BF50B661F771F881F991F1A94C8
:1013500069F760957095809590959B01AC01BD01F2
:10136000CF010895A29FB001B39FC001A39F700D4C
:10137000811D1124911DB29F700D811D1124911D9D
:101380000895EE0FFF1F0590F491E02D0994F89455
:10139000FFCF0100000000004000140054000000D6
:1013A00000002E018E00BB007B01EC00CA00DE00B5
:1013B0000000000038030B034E04E1020403F102B5
:1013C000E20200000000BF048E004E047A022020DA
:1013D0004269656E76656E69646F20612020002029
:1013E000205375706572204775616E746920200006
:1013F000556E61206372656163696F6E2064653A42
:101400000020202020204D2E412E4C2E2020202058
:021410002000BA
:107E0000112484B714BE81FFF0D085E080938100F7
:107E100082E08093C00088E18093C10086E0809377
:107E2000C20080E18093C4008EE0C9D0259A86E02C
:107E300020E33CEF91E0309385002093840096BBD3
:107E4000B09BFECF1D9AA8958150A9F7CC24DD24C4
:107E500088248394B5E0AB2EA1E19A2EF3E0BF2EE7
:107E6000A2D0813461F49FD0082FAFD0023811F036
:107E7000013811F484E001C083E08DD089C08234E0
:107E800011F484E103C0853419F485E0A6D080C0E4
:107E9000853579F488D0E82EFF2485D0082F10E0AE
:107EA000102F00270E291F29000F111F8ED06801E7
:107EB0006FC0863521F484E090D080E0DECF843638
:107EC00009F040C070D06FD0082F6DD080E0C81688
:107ED00080E7D80618F4F601B7BEE895C0E0D1E017
:107EE00062D089930C17E1F7F0E0CF16F0E7DF06D8
:107EF00018F0F601B7BEE89568D007B600FCFDCFD4
:107F0000A601A0E0B1E02C9130E011968C91119780
:107F100090E0982F8827822B932B1296FA010C0160
:107F200087BEE89511244E5F5F4FF1E0A038BF0790
:107F300051F7F601A7BEE89507B600FCFDCF97BE46
:107F4000E89526C08437B1F42ED02DD0F82E2BD052
:107F50003CD0F601EF2C8F010F5F1F4F84911BD097
:107F6000EA94F801C1F70894C11CD11CFA94CF0C13
:107F7000D11C0EC0853739F428D08EE10CD085E9AC
:107F80000AD08FE07ACF813511F488E018D01DD067
:107F900080E101D065CF982F8091C00085FFFCCF94
:107FA0009093C60008958091C00087FFFCCF809118
:107FB000C00084FD01C0A8958091C6000895E0E648
:107FC000F0E098E1908380830895EDDF803219F02E
:107FD00088E0F5DFFFCF84E1DECF1F93182FE3DFCA
:107FE0001150E9F7F2DF1F91089580E0E8DFEE27F6
:047FF000FF270994CA
:027FFE00040479
:00000001FF
