:020000040000FA
:100000000C9462000C948A000C948A000C948A0070
:100010000C948A000C948A000C948A000C948A0038
:100020000C948A000C948A000C948A000C948A0028
:100030000C948A000C946C060C948A000C948A0030
:100040000C9422060C948A000C94F0050C94CA05BA
:100050000C948A000C948A000C948A000C948A00F8
:100060000C9493060C948A000000000024002700E2
:100070002A0000000000250028002B0000000000DE
:1000800023002600290004040404040404040202DA
:100090000202020203030303030301020408102007
:1000A0004080010204081020010204081020000012
:1000B0000008000201000003040700000000000027
:1000C0000000B20711241FBECFEFD8E0DEBFCDBFC6
:1000D00011E0A0E0B1E0EAE5F7E102C005900D9281
:1000E000AE3DB107D9F723E0AEEDB1E001C01D92FE
:1000F000A936B207E1F710E0C2E6D0E004C02197CC
:10010000FE010E94A50BC136D107C9F70E94FA076C
:100110000C94AB0B0C9400002091DE013091DF01B8
:10012000C90101969093DF018093DE0185E090E0A4
:10013000821B930B9093AD028093AC028091AC0232
:100140009091AD021816190634F082E090E0909379
:10015000B1028093B002089508950895AF92BF92BE
:10016000CF92DF92EF92FF920F931F93CF93DF9383
:100170006C017B018B01040F151FEB015E01AE18B2
:10018000BF08C017D10759F06991D601ED91FC91D4
:100190000190F081E02DC6010995892B79F7C50101
:1001A000DF91CF911F910F91FF90EF90DF90CF9053
:1001B000BF90AF900895FC01538D448D252F30E002
:1001C000842F90E0821B930B541710F0CF96089564
:1001D00001970895FC01918D828D981761F0A28D91
:1001E000AE0FBF2FB11D5D968C91928D9F5F9F7357
:1001F000928F90E008958FEF9FEF0895FC01918D0D
:10020000828D981731F0828DE80FF11D858D90E079
:1002100008958FEF9FEF0895FC01918D228D892F16
:1002200090E0805C9F4F821B91098F7399270895FE
:1002300084EB92E00E940C0121E0892B09F420E07C
:10024000822F089580E090E0892B29F00E94180108
:1002500081110C9400000895FC01A48DA80FB92F02
:10026000B11DA35ABF4F2C91848D90E001968F73DE
:100270009927848FA689B7892C93A089B1898C91FD
:10028000837080648C93938D848D981306C002884C
:10029000F389E02D80818F7D80830895EF92FF9216
:1002A0000F931F93CF93DF93EC0181E0888F9B8D99
:1002B0008C8D98131AC0E889F989808185FF15C053
:1002C0009FB7F894EE89FF896083E889F989808176
:1002D0008370806480839FBF81E090E0DF91CF9145
:1002E0001F910F91FF90EF900895F62E0B8D10E067
:1002F0000F5F1F4F0F731127E02E8C8D8E110CC0D6
:100300000FB607FCFACFE889F989808185FFF5CF20
:10031000CE010E942C01F1CFEB8DEC0FFD2FF11DD2
:10032000E35AFF4FF0829FB7F8940B8FEA89FB895D
:1003300080818062CFCFCF93DF93EC01888D8823BB
:10034000B9F0AA89BB89E889F9898C9185FD03C038
:10035000808186FD0DC00FB607FCF7CF8C9185FF1D
:10036000F2CF808185FFEDCFCE010E942C01E9CF35
:10037000DF91CF910895833081F028F4813099F096
:100380008230A9F008958730A9F08830C9F0843010
:10039000B1F4809180008F7D03C0809180008F77C1
:1003A00080938000089584B58F7784BD089584B5C7
:1003B0008F7DFBCF8091B0008F778093B000089540
:1003C0008091B0008F7DF9CFCF93DF93282F30E05D
:1003D000F901E255FF4F8491F901E656FF4FD491A0
:1003E000F901EA57FF4FC491CC23A1F081110E947B
:1003F000BB01EC2FF0E0EE0FFF1FE458FF4FA5917B
:10040000B491EC91ED2381E090E009F480E0DF917C
:10041000CF91089580E090E0FACF1F93CF93DF93C0
:10042000282F30E0F901E255FF4F8491F901E6569B
:10043000FF4FD491F901EA57FF4FC491CC23A9F0A3
:10044000162F81110E94BB01EC2FF0E0EE0FFF1F71
:10045000EE58FF4FA591B4918FB7F894EC9111111C
:1004600008C0D095DE23DC938FBFDF91CF911F9121
:100470000895DE2BF8CFCF93DF9390E0FC01E65692
:10048000FF4F24918A579F4FFC0184918823D1F01C
:1004900090E0880F991FFC01E859FF4FA591B49196
:1004A000FC01EE58FF4FC591D49161110EC09FB76A
:1004B000F8948C91E22FE0958E238C932881E2238F
:1004C000E8839FBFDF91CF9108958FB7F894EC91A7
:1004D000E22BEC938FBFF6CF3FB7F8948091970251
:1004E00090919802A0919902B0919A0226B5A89B8A
:1004F00005C02F3F19F00196A11DB11D3FBFBA2FB6
:10050000A92F982F8827BC01CD01620F711D811D75
:10051000911D42E0660F771F881F991F4A95D1F7FA
:1005200008958F929F92AF92BF92CF92DF92EF92F7
:10053000FF924B015C010E946C026B017C010E94E6
:100540006C026C197D098E099F09683E7340810514
:100550009105A8F321E0821A9108A108B10888EE5C
:10056000C80E83E0D81EE11CF11C81149104A10483
:10057000B10429F7FF90EF90DF90CF90BF90AF903C
:100580009F908F900895089520912102260F332780
:10059000331F21323105ECF420916A02FC0190E016
:1005A00080E0243069F082E00895A0912102219139
:1005B000AC014F5F5D4FA40FB52FB11D2C93019679
:1005C000861798F380912102680F6093210280E0E2
:1005D000089581E0089510926A0281E08093690293
:1005E0001092440261E082E10E940D0261E083E129
:1005F0000E940D02E9EBF0E080818E7F8083808194
:100600008D7F808388E48093B80085E48093BC006C
:100610000895CF93DF9391E0909300028823B9F07F
:10062000C091B800D091BA008091BC008A7B8093C1
:10063000BC0060E082E10E940D0260E083E10E9464
:100640000D020E94EB02D093BA00C093B800DF9174
:10065000CF9108950895E091A2028091A102E81738
:1006600030F4F0E0E052FE4F808190E008958FEF8B
:100670009FEF08959091A2028091A1022FEF3FEF8A
:10068000981748F4E92FF0E0E052FE4F208130E067
:100690009F5F9093A202C90108958091A102909159
:1006A000A202891B990B0895CF92DF92EF92FF92DD
:1006B0000F931F93CF93DF937C01CB018A0120918D
:1006C0007002222389F0EB016B01C40ED51ECC15FC
:1006D000DD0569F06991D701ED91FC910190F08100
:1006E000E02DC7010995F3CF642F0E94C402C80111
:1006F000DF91CF911F910F91FF90EF90DF90CF90FE
:100700000895CF93DF931F92CDB7DEB76983209111
:1007100070022223F9F020919F02203258F021E04C
:1007200030E0FC013383228390E080E00F90DF9182
:10073000CF9108958091A002E82FF0E0EF58FD4F8F
:10074000998190838F5F8093A00280939F0281E0C4
:1007500090E0ECCF61E0CE0101960E94C402F7CF99
:10076000CF92DF92EF92FF920F931F93CF93DF937D
:10077000FC01C48121E020937002C0939102109289
:10078000A00210929F028385682B81E593E00E946E
:100790008103D0919F02D13208F092C00E946C0276
:1007A0006B017C0180916A02811165C082E08093B7
:1007B0006A0281E0809369028FEF80936802109251
:1007C0006702D0936602A1E7B2E0E6E4F2E080E0DF
:1007D000D81385C01092450280914502CC0FC82BDA
:1007E000C093450280914402813009F07CC0109290
:1007F00044020E946C026B017C018091450280934F
:10080000BB0080916C0290916D02A0916E02B0913C
:100810006F02892B8A2B8B2B99F00E946C0200911E
:100820006C0210916D0220916E0230916F026C1972
:100830007D098E099F090617170728073907E0F178
:100840008091BC0083FDD9CF85EC8093BC000E94D1
:100850006C026B017C0180916A02823009F445C010
:10086000809168028F3F61F180916802803241F18E
:100870008091680225C080916C0290916D02A091D8
:100880006E02B0916F02892B8A2B8B2B09F48ACFD1
:100890000E946C0200916C0210916D0220916E0218
:1008A00030916F026C197D098E099F090617170791
:1008B0002807390708F076CF80916B020E94090360
:1008C0001092A00210929F0210927002DF91CF91BD
:1008D0001F910F91FF90EF90DF90CF9008959D9121
:1008E00091938F5F75CF85EEB0CF80916C02909120
:1008F0006D02A0916E02B0916F02892B8A2B8B2B17
:1009000009F4A9CF0E946C0200916C0210916D0253
:1009100020916E0230916F026C197D098E099F093A
:10092000061717072807390708F095CFC5CF90E0BD
:1009300080E008958F929F92AF92BF920F931F9382
:10094000CF93DF93CDB7DEB7A1970FB6F894DEBF94
:100950000FBECDBF19A2423008F44AE08E010F5DF0
:100960001F4F842E912CB12CA12CA50194010E9423
:10097000740BE62FB901CA01EA3044F5E05DD801F5
:10098000EE938D01232B242B252B79F790E080E02B
:10099000109769F0FD0101900020E9F73197AF0150
:1009A0004A1B5B0BBD018DE593E00E94AE00A19652
:1009B0000FB6F894DEBF0FBECDBFDF91CF911F9170
:1009C0000F91BF90AF909F908F900895E95CD7CF23
:1009D000FC0101900020E9F73197AF01481B590B4A
:1009E000BC018DE593E00C94AE000F931F93CF9361
:1009F0008C01C62F0E94B0036C2F6460C8010E9456
:100A0000B0036C2F6B7FC8010E94B00383EC90E0B1
:100A10000197F1F7CF911F910F9108950F931F93B5
:100A2000CF93DF938C01D62FC42F607F642B0E945D
:100A3000F50480E1D89FB00111246C2BC801DF912F
:100A4000CF911F910F910C94F50440E061E08DE58A
:100A500093E00E940E058BE39FE10197F1F7089563
:100A6000CF93DF93CDB7DEB728970FB6F894DEBFEC
:100A70000FBECDBF98E0E4E0F1E0DE0111960190F9
:100A80000D929A95E1F790916503961708F46FEF30
:100A9000262F30E0220F331F41E050E04C0F5D1F46
:100AA000240F351FF9016081680F606840E08DE513
:100AB00093E028960FB6F894DEBF0FBECDBFDF914E
:100AC000CF910C940E0541E00E940E0581E090E06C
:100AD0000895CF92DF92EF92FF926C01990FEE088A
:100AE000FF08F7FE16C041E06DE28DE593E00E943D
:100AF0000E0566277727CB016C197D098E099F09A2
:100B00004AE00E949A040196FF90EF90DF90CF9008
:100B100008954AE0C701B601FF90EF90DF90CF90B3
:100B20000C949A0485ED8093BC0080916C029091A6
:100B30006D02A0916E02B0916F020796A11DB11DCA
:100B400023E0B695A795979587952A95D1F720919B
:100B5000BC0024FD03C010926A02089540916C020B
:100B600050916D0260916E0270916F02452B462B81
:100B7000472B69F30097A105B10541F025E32A95BC
:100B8000F1F700000197A109B109E1CF80916B0253
:100B90000C9409031F920F920FB60F9211242F93FA
:100BA0003F934F935F936F937F938F939F93AF93F5
:100BB000BF93EF93FF9384EB92E00E942C01FF918F
:100BC000EF91BF91AF919F918F917F916F915F91C5
:100BD0004F913F912F910F900FBE0F901F9018953E
:100BE0001F920F920FB60F9211242F938F939F9302
:100BF000EF93FF93E091C402F091C5028081E091F0
:100C0000CA02F091CB0282FD1BC090818091CD027F
:100C10008F5F8F732091CE02821741F0E091CD0259
:100C2000F0E0EC54FD4F958F8093CD02FF91EF9152
:100C30009F918F912F910F900FBE0F901F9018953D
:100C40008081F4CF1F920F920FB60F9211242F9331
:100C50003F938F939F93AF93BF9380919302909113
:100C60009402A0919502B09196023091920223E0F5
:100C7000230F2D3758F50196A11DB11D2093920227
:100C80008093930290939402A0939502B09396025E
:100C90008091970290919802A0919902B0919A0246
:100CA0000196A11DB11D8093970290939802A09385
:100CB0009902B0939A02BF91AF919F918F913F910A
:100CC0002F910F900FBE0F901F90189526E8230FBD
:100CD0000296A11DB11DD2CF1F920F920FB60F9297
:100CE00011242F933F934F935F936F937F938F9331
:100CF0009F93AF93BF93EF93FF93E091AE02F09178
:100D0000AF020995FF91EF91BF91AF919F918F91A4
:100D10007F916F915F914F913F912F910F900FBEF7
:100D20000F901F9018951F920F920FB60F921124DB
:100D30002F933F934F935F936F937F938F939F93E3
:100D4000AF93BF93EF93FF938091B900887F803674
:100D500009F44AC0F0F5883209F4A7C018F58031CB
:100D600009F49BC0B8F4882309F4F9C0883009F469
:100D700094C0FF91EF91BF91AF919F918F917F911F
:100D80006F915F914F913F912F910F900FBE0F90F8
:100D90001F901895883109F488C0803251F78093EC
:100DA000680214C0803409F49DC040F48033B9F364
:100DB0008833F9F68093680285ECB0C0803509F479
:100DC00085C0883509F496C0883499F60E9492054A
:100DD000D0CF883909F48CC038F5883729F050F421
:100DE000883611F0803729F683E080936A021092EA
:100DF000430257C0883809F47BC0803919F0803825
:100E000009F0B7CF80914302803208F071C0E091C1
:100E1000430281E08E0F809343028091BB00F0E09B
:100E2000ED5DFD4F80833DC0803B39F0E0F4803ABA
:100E300009F479C0883A09F09CCF84E080936A0273
:100E40001092220210922102E0919D02F0919E02E6
:100E500009958091210281110FC081E080932102C8
:100E60001092010209C0803C09F4A6CF883C09F425
:100E7000A3CF883B09F07DCFE091220281E08E0F65
:100E800080932202F0E0EF5FFD4F80818093BB00F2
:100E9000909122028091210229C080914502809385
:100EA000BB0085EC8093BC0064CF90916702809179
:100EB0006602981758F5E091670281E08E0F8093E3
:100EC0006702F0E0EA5BFD4F8081E9CFE0916702C5
:100ED00081E08E0F809367028091BB00F0E0EA5BB7
:100EE000FD4F808390916702809166029817C8F247
:100EF00085E8D8CFE091670281E08E0F809367028A
:100F00008091BB00F0E0EA5BFD4F80838091690235
:100F100081115CCF81E08093440284EA8093BC001D
:100F200010926A0226CF85EC8093BC0010926A0270
:100F300080914302803230F4E0914302F0E0ED5DB5
:100F4000FD4F10826091430270E0E0919B02F091AE
:100F50009C0283E292E00995109243020ACF10921C
:100F6000680234CFE4EBF2E01382128288EE93E061
:100F7000A0E0B0E084839583A683B78320E131E0CD
:100F80003183208325EC30E03587248724EC30E062
:100F90003787268720EC30E0318B208B21EC30E046
:100FA000338B228B22EC30E0358B248B26EC30E027
:100FB000378B268B118E128E138E148EE1E5F3E0A3
:100FC0001382128284839583A683B78382E291E0A1
:100FD00091838083EDE5F3E01382128284E391E054
:100FE0009183808387E2848380E1818782E08287A6
:100FF00013860895789484B5826084BD84B5816039
:1010000084BD85B5826085BD85B5816085BD8091D3
:101010006E00816080936E0010928100809181004B
:101020008260809381008091810081608093810043
:10103000809180008160809380008091B100846005
:101040008093B1008091B00081608093B000809166
:101050007A00846080937A0080917A008260809325
:101060007A0080917A00816080937A0080917A0082
:10107000806880937A001092C100E091C402F091E0
:10108000C50282E08083E091C002F091C10210822B
:10109000E091C202F091C3028FEC80831092CC02E7
:1010A000E091C802F091C90286E08083E091C60217
:1010B000F091C702808180618083E091C602F09147
:1010C000C702808188608083E091C602F091C702E8
:1010D000808180688083E091C602F091C7028081A0
:1010E0008F7D80831092A2021092A1021092A00222
:1010F00010929F020E94EB028CEA90E090939E0275
:1011000080939D028DEA90E090939C0280939B02D5
:101110001092620380916703823018F098E09093F8
:1011200062038093650362E370E080E090E00E94D8
:101130009102609168038DE593E00E94B00368EE30
:1011400073E080E090E00E94910260E38DE593E01F
:101150000E94F504CBE4D6E4CE010197F1F760E3F9
:101160008DE593E00E94F5042197F1F760E38DE5AA
:1011700093E00E94F50483E592E00197F1F760E2C5
:101180008DE593E00E94F50460916203606240E0A7
:101190008DE593E00E940E0584E08093630340E0B8
:1011A0006CE08DE593E00E940E050E94250582E02B
:1011B0008093640340E066E08DE593E00E940E05B5
:1011C00040E062E08DE593E00E940E058BE39FE135
:1011D0000197F1F788E08093680360E08DE593E084
:1011E0000E94B00360E080E00E9430058CE391E053
:1011F0000E94E80461E080E00E9430058DE491E007
:101200000E94E80468EE73E080E090E00E949102A2
:101210000E94250560E080E00E9430058EE591E0A7
:101220000E94E80461E080E00E9430058FE691E0D2
:101230000E94E80468EE73E080E090E00E94910272
:1012400060E085E00E943B0260E084E00E943B0297
:1012500060E08EE00E943B0260E08FE00E943B0273
:1012600060E080E10E943B0260E081E10E943B027D
:1012700060E080E00E943B0261E088E00E943B0267
:1012800061E08DE00E943B0261E08CE00E943B0245
:1012900092E1E92E9AE7F92E25E0422E512C612C9D
:1012A000712CCC24C394D12C40E0842E40E0942EA9
:1012B0005CE8A52E50E0B52EC1E0D0E084E1282EF8
:1012C000332433948091B2029091B302892B09F0B8
:1012D0004BC00E94250560E080E00E94300580E858
:1012E00091E00E94E80485E00E94E4010197C9F4BE
:1012F0008091A6029091A70201969093A7028093F5
:10130000A6026CE271E080E090E00E94910261E050
:1013100080E00E9430058091A6029091A7020E9471
:10132000690584E00E94E401892BE9F284E00E94CF
:10133000E4018C01019761F46CE271E080E090E0DF
:101340000E9491021093B3020093B2020E942505FD
:101350008114910409F4B6CF0E941801882309F47E
:10136000AFCF0E940000AACF8091B0029091B1024D
:1013700081309105D1F08230910599F1892B41F7A7
:1013800060E080E00E94300580E991E00E94E8047E
:1013900061E080E00E94300580EA91E00E94E8046C
:1013A000D093B102C093B002D3CF20E1209381004B
:1013B00010928000F0928700E092860020928100D7
:1013C000B092AF02A092AE0230926F0061E08AE06C
:1013D0000E9430058091AC029091AD020E94690597
:1013E000B7CF60E080E00E9430058AEA91E00E9479
:1013F000E8048091AA029091AB02892BC9F50E9462
:10140000EA0AA30192010E94420B7093A502609325
:10141000A4021092A3028091A4029091A5029601C9
:1014200002C0220F331F8A95E2F72093A30260E0E7
:1014300088E00E940D020091A30218E0602F661F51
:101440006627661F8CE00E940D02000F61E08DE0B0
:101450000E940D0260E08DE00E940D02115071F7B4
:1014600061E088E00E940D02D093AB02C093AA0213
:101470008EE00E94E401019709F042C06CE271E045
:1014800080E090E00E9491028091A8029091A902D0
:1014900001969093A9028093A8022091A80230910E
:1014A000A9028091A6029091A702281739070CF48F
:1014B00040C02091A8023091A9028091A60290918B
:1014C000A702281739070CF443CF0E9425050E9474
:1014D000250560E080E00E9430058BEB91E00E94E2
:1014E000E80461E080E00E9430058CEC91E00E940D
:1014F000E80460ED77E080E090E00E94910228CF60
:101500008FE00E94E401019709F4B8CF80E10E94C6
:10151000E401019709F4B2CF81E10E94E40101974F
:1015200009F4ACCF80E00E94E401019709F010CFEC
:10153000A5CF1092AB021092AA02BBCF8F929F92BE
:10154000AF92BF92CF92DF92EF92FF92CF93DF9351
:10155000EC01688179818A819B8161157105810522
:10156000910521F464E279ED8BE597E02DE133EF0D
:1015700041E050E00E94420B49015A019B01AC013D
:10158000A7EAB1E40E94610B6B017C01ACEEB4EF01
:10159000A50194010E946F0BC60ED71EE81EF91E0E
:1015A000F7FE06C081E0C81AD108E10880E8F80A11
:1015B000C882D982EA82FB82C701B6019F77DF9198
:1015C000CF91FF90EF90DF90CF90BF90AF909F9022
:1015D0008F9008958F929F92AF92BF92CF92DF9299
:1015E000EF92FF92609100017091010180910201E0
:1015F00090910301611571058105910521F464E263
:1016000079ED8BE597E02DE133EF41E050E00E946A
:10161000420B49015A019B01AC01A7EAB1E40E94C7
:10162000610B6B017C01ACEEB4EFA50194010E944B
:101630006F0BC60ED71EE81EF91EF7FE06C081E02E
:10164000C81AD108E10880E8F80AC0920001D092D7
:101650000101E0920201F0920301C701B6019F77F8
:10166000FF90EF90DF90CF90BF90AF909F908F90C2
:10167000089560930001709301018093020190939B
:1016800003010895052E97FB1EF400940E94590B48
:1016900057FD07D00E94740B07FC03D04EF40C9446
:1016A000590B50954095309521953F4F4F4F5F4FC7
:1016B000089590958095709561957F4F8F4F9F4FBE
:1016C00008950E94960BA59F900DB49F900DA49F26
:1016D000800D911D11240895B7FF0C94610B0E9499
:1016E000610B821B930B0895A1E21A2EAA1BBB1B50
:1016F000FD010DC0AA1FBB1FEE1FFF1FA217B307DE
:10170000E407F50720F0A21BB30BE40BF50B661FF3
:10171000771F881F991F1A9469F7609570958095B7
:1017200090959B01AC01BD01CF010895A29FB0012E
:10173000B39FC001A39F700D811D1124911DB29F05
:10174000700D811D1124911D0895EE0FFF1F05904E
:10175000F491E02D0994F894FFCF010000000000FF
:10176000400014005400000000004E01AE00DB00F9
:101770009B010C01EA00FE000000000081035403FD
:1017800097042A034D033A032B030000000063056E
:10179000AE009704C30220204269656E76656E69CB
:1017A000646F2061202000202053757065722047EF
:1017B00075616E7469202000556E612063726561E9
:1017C00063696F6E2064653A0020202020204D2E32
:1017D000412E4C2E20202020200043616E74206476
:1017E00065207669616A65733A00456C206A7565A3
:1017F000676F20696E696369610020202020206581
:101800006E3A20002020202041204A554741522195
:101810002020202000202046656C69636964616493
:101820006573212020002046696E2064656C206A63
:081830007565676F21200000BF
:107E0000112484B714BE81FFF0D085E080938100F7
:107E100082E08093C00088E18093C10086E0809377
:107E2000C20080E18093C4008EE0C9D0259A86E02C
:107E300020E33CEF91E0309385002093840096BBD3
:107E4000B09BFECF1D9AA8958150A9F7CC24DD24C4
:107E500088248394B5E0AB2EA1E19A2EF3E0BF2EE7
:107E6000A2D0813461F49FD0082FAFD0023811F036
:107E7000013811F484E001C083E08DD089C08234E0
:107E800011F484E103C0853419F485E0A6D080C0E4
:107E9000853579F488D0E82EFF2485D0082F10E0AE
:107EA000102F00270E291F29000F111F8ED06801E7
:107EB0006FC0863521F484E090D080E0DECF843638
:107EC00009F040C070D06FD0082F6DD080E0C81688
:107ED00080E7D80618F4F601B7BEE895C0E0D1E017
:107EE00062D089930C17E1F7F0E0CF16F0E7DF06D8
:107EF00018F0F601B7BEE89568D007B600FCFDCFD4
:107F0000A601A0E0B1E02C9130E011968C91119780
:107F100090E0982F8827822B932B1296FA010C0160
:107F200087BEE89511244E5F5F4FF1E0A038BF0790
:107F300051F7F601A7BEE89507B600FCFDCF97BE46
:107F4000E89526C08437B1F42ED02DD0F82E2BD052
:107F50003CD0F601EF2C8F010F5F1F4F84911BD097
:107F6000EA94F801C1F70894C11CD11CFA94CF0C13
:107F7000D11C0EC0853739F428D08EE10CD085E9AC
:107F80000AD08FE07ACF813511F488E018D01DD067
:107F900080E101D065CF982F8091C00085FFFCCF94
:107FA0009093C60008958091C00087FFFCCF809118
:107FB000C00084FD01C0A8958091C6000895E0E648
:107FC000F0E098E1908380830895EDDF803219F02E
:107FD00088E0F5DFFFCF84E1DECF1F93182FE3DFCA
:107FE0001150E9F7F2DF1F91089580E0E8DFEE27F6
:047FF000FF270994CA
:027FFE00040479
:00000001FF
