:100000000C9462000C948A000C948A000C948A0070
:100010000C948A000C948A000C948A000C948A0038
:100020000C948A000C948A000C948A000C948A0028
:100030000C948A000C948A000C948A000C948A0018
:100040000C942B030C948A000C948A000C948A0064
:100050000C948A000C948A000C948A000C948A00F8
:100060000C948A000C948A000000000024002700F1
:100070002A0000000000250028002B0000000000DE
:1000800023002600290004040404040404040202DA
:100090000202020203030303030301020408102007
:1000A0004080010204081020010204081020000012
:1000B0000008000201000003040700000000000027
:1000C0000000890411241FBECFEFD8E0DEBFCDBFF2
:1000D00011E0A0E0B1E0E2EAF9E002C005900D9283
:1000E000A237B107D9F721E0A2E7B1E001C01D9224
:1000F000A739B207E1F710E0C2E6D0E004C02197CB
:10010000FE010E94C904C136D107C9F70E947503D8
:100110000C94CF040C940000AF92BF92CF92DF9268
:10012000EF92FF920F931F93CF93DF936C017B01AC
:100130008B01040F151FEB015E01AE18BF08C0173D
:10014000D10759F06991D601ED91FC910190F081B0
:10015000E02DC6010995892B79F7C501DF91CF9173
:100160001F910F91FF90EF90DF90CF90BF90AF90D5
:100170000895833081F028F4813099F08230A9F01D
:1001800008958730A9F08830C9F08430B1F48091A7
:1001900080008F7D03C0809180008F7780938000E6
:1001A000089584B58F7784BD089584B58F7DFBCF86
:1001B0008091B0008F778093B00008958091B00057
:1001C0008F7DF9CFCF93DF93282F30E0F901E255EF
:1001D000FF4F8491F901E656FF4FD491F901EA5798
:1001E000FF4FC491CC23A1F081110E94B900EC2FE4
:1001F000F0E0EE0FFF1FE458FF4FA591B491EC9192
:10020000ED2381E090E009F480E0DF91CF91089543
:1002100080E090E0FACF1F93CF93DF93282F30E058
:10022000F901E255FF4F8491F901E656FF4FD49151
:10023000F901EA57FF4FC491CC23A9F0162F811181
:100240000E94B900EC2FF0E0EE0FFF1FEE58FF4FB9
:10025000A591B4918FB7F894EC91111108C0D09585
:10026000DE23DC938FBFDF91CF911F910895DE2BAA
:10027000F8CFCF93DF9390E0FC01E656FF4F249137
:100280008A579F4FFC0184918823D1F090E0880F1A
:10029000991FFC01E859FF4FA591B491FC01EE585C
:1002A000FF4FC591D491623071F49FB7F8943C919F
:1002B000822F809583238C93E8812E2B28839FBFE8
:1002C000DF91CF9108958FB7F894EC912E2B2C935A
:1002D0008FBFF6CF3FB7F894809177019091780166
:1002E000A0917901B0917A0126B5A89B05C02F3F56
:1002F00019F00196A11DB11D3FBFBA2FA92F982F4C
:100300008827BC01CD01620F711D811D911D42E046
:10031000660F771F881F991F4A95D1F708958F920E
:100320009F92AF92BF92CF92DF92EF92FF924B01DA
:100330005C010E946A016B017C010E946A016C19D8
:100340007D098E099F09683E734081059105A8F3D8
:1003500021E0821A9108A108B10888EEC80E83E056
:10036000D81EE11CF11C81149104A104B10429F7E9
:10037000FF90EF90DF90CF90BF90AF909F908F90C5
:100380000895089590E080E00895FC010190002018
:10039000E9F73197AF01481B590BBC018FE791E09A
:1003A0000C948C00CF93DF93EC0160E08E810E946F
:1003B0000B0161E08E810E940B0160E08E810E9442
:1003C0000B018BE891E00197F1F7DF91CF91089550
:1003D000CF92DF92EF92FF920F931F93CF93DF9311
:1003E0006C017C0187E0E80EF11CD0E0C0E0062F34
:1003F00010E0B8010C2E02C0759567950A94E2F7DB
:100400006170F70181917F010E940B012196C43038
:10041000D10579F7C601DF91CF911F910F91FF9020
:10042000EF90DF90CF900C94D201CF92DF92EF92B9
:10043000FF920F931F93CF93DF93EC01F62E642F5F
:100440008C810E940B018D818F3F19F060E00E942A
:100450000B010F2D10E08F8584FF25C06E0187E012
:10046000C80ED11CF12CE12CB8010E2C02C07595E0
:1004700067950A94E2F76170F60181916F010E941D
:100480000B01FFEFEF1AFF0A88E0E816F10461F7AD
:10049000CE01DF91CF911F910F91FF90EF90DF90F0
:1004A000CF900C94D201B80184E0759567958A9538
:1004B000E1F7CE010E94E8016F2DCE01DF91CF91CF
:1004C0001F910F91FF90EF90DF90CF900C94E80177
:1004D00040E0682F8FE791E00C94150281E00E94C4
:1004E00068028BE39FE10197F1F70895CF93DF93C3
:1004F000823029F490918E01986090938E018093C0
:1005000092011092930180E48093940180E18093A2
:10051000950180E58093960161E0809183010E94BE
:100520003901809184018F3F19F061E00E94390107
:1005300061E0809185010E943901CFE7D1E09E0101
:100540002F57314080918E0184FD0BC084E090E0F4
:1005500021962817390744F461E08E810E94390101
:10056000EECF88E090E0F4CF8BE39DE00197F1F7C8
:1005700060E0809183010E940B0160E08091850121
:100580000E940B01809184018F3F19F060E00E946E
:100590000B0180918E0184FD34C063E08FE791E010
:1005A0000E94E801CBE4D6E4CE010197F1F763E0C5
:1005B0008FE791E00E94E8012197F1F763E08FE770
:1005C00091E00E94E80183E592E00197F1F762E093
:1005D0008FE791E00E94E80180918E0180620E9485
:1005E000680284E080938F018CE00E9468020E9480
:1005F0006E0282E08093900186E0DF91CF910C94AF
:10060000680280620E9468028BE496E40197F1F729
:1006100080918E0180620E94680283E592E00197DA
:10062000F1F780918E0180620E946802D5CF90918F
:100630009201891710F08FEF890FE82FF0E0E15851
:10064000FE4F848980680C94680241E00E94150284
:1006500081E090E008951F920F920FB60F9211243F
:100660002F933F938F939F93AF93BF938091730189
:1006700090917401A0917501B09176013091720151
:1006800023E0230F2D3758F50196A11DB11D2093AE
:1006900072018093730190937401A0937501B093DC
:1006A00076018091770190917801A0917901B091C4
:1006B0007A010196A11DB11D809377019093780175
:1006C000A0937901B0937A01BF91AF919F918F91DF
:1006D0003F912F910F900FBE0F901F90189526E815
:1006E000230F0296A11DB11DD2CFCF93DF93CDB7BB
:1006F000DEB7A1970FB6F894DEBF0FBECDBF7894DA
:1007000084B5826084BD84B5816084BD85B5826016
:1007100085BD85B5816085BD80916E0081608093C7
:100720006E00109281008091810082608093810030
:100730008091810081608093810080918000816040
:10074000809380008091B10084608093B10080919B
:10075000B00081608093B00080917A0084608093C3
:100760007A0080917A00826080937A0080917A008A
:10077000816080937A0080917A00806880937A000B
:100780001092C10082E00E9476028CE091E00E940B
:10079000C50181E00E9417038DE191E00E94C5012F
:1007A00068EE73E080E090E00E948F010E946E028C
:1007B0008EE291E00E94C50181E00E9417038FE361
:1007C00091E00E94C50168EE73E080E090E00E9435
:1007D0008F0162E085E00E94390162E084E00E94BE
:1007E00039018AE0482E512C612C712C00E010E078
:1007F000AA24A394B12C80917D0190917E01892B34
:1008000009F07FC00E946E0280E00E94170380E51D
:1008100091E00E94C50185E00E94E200892B09F069
:1008200042C080917B0190917C01019690937C0164
:1008300080937B016CE271E080E090E00E948F0188
:1008400081E00E941703C0907B01D0907C010D2CA9
:10085000000CEE08FF08F7FE3EC041E06DE28FE7B6
:1008600091E00E94150222273327A9012C193D0986
:100870004E095F0919A2CE0181967C01CA01B90116
:10088000A30192010E94A704605DF70162937F01BA
:10089000211531054105510589F7E114F10419F0DD
:1008A000C7010E94C50184E00E94E200019709F49B
:1008B000B2CF84E00E94E200892B31F4B0927E0135
:1008C000A0927D010E946E020115110509F493CFDB
:1008D0000E94000090CFA701960119A2CE01819637
:1008E0007C01CA01B901A30192010E94A704605DC5
:1008F000F70162937F01211531054105510589F703
:10090000CCCF80E00E94170380E691E00E94C501F1
:10091000DBCFEFE7F1E01382128284E091E0918374
:1009200080838CE084838FEF85838BE086838AE0ED
:10093000878389E0808788E0818787E082871386C4
:10094000148615861686178681E00C947602A1E23D
:100950001A2EAA1BBB1BFD010DC0AA1FBB1FEE1F39
:10096000FF1FA217B307E407F50720F0A21BB30B84
:10097000E40BF50B661F771F881F991F1A9469F700
:1009800060957095809590959B01AC01BD01CF015C
:100990000895EE0FFF1F0590F491E02D0994F8944F
:0209A000FFCF87
:1009A2000000000025038C00C201C1012020426921
:1009B200656E76656E69646F206120200020205389
:1009C20075706572204775616E7469202000556EDE
:1009D20061206372656163696F6E2064653A00200D
:1009E200202020204D2E412E4C2E20202020200081
:1009F20043616E74206465207669616A65733A00AA
:100A0200496E6963696F2064656C206A7565676FFA
:020A12000000E2
:00000001FF
