:100000000C9462000C948A000C948A000C948A0070
:100010000C948A000C948A000C948A000C948A0038
:100020000C948A000C948A000C948A000C948A0028
:100030000C948A000C9422040C948A000C948A007C
:100040000C94D8030C948A000C948A000C948A00B7
:100050000C948A000C948A000C948A000C948A00F8
:100060000C948A000C948A000000000024002700F1
:100070002A0000000000250028002B0000000000DE
:1000800023002600290004040404040404040202DA
:100090000202020203030303030301020408102007
:1000A0004080010204081020010204081020000012
:1000B0000008000201000003040700000000000027
:1000C0000000740611241FBECFEFD8E0DEBFCDBF05
:1000D00011E0A0E0B1E0E2E4FFE002C005900D9283
:1000E000A23BB107D9F721E0A2EBB1E001C01D921C
:1000F000A73EB207E1F710E0C2E6D0E004C02197C6
:10010000FE010E949907C136D107C9F70E94490430
:100110000C949F070C940000AF92BF92CF92DF9295
:10012000EF92FF920F931F93CF93DF936C017B01AC
:100130008B01040F151FEB015E01AE18BF08C0173D
:10014000D10759F06991D601ED91FC910190F081B0
:10015000E02DC6010995892B79F7C501DF91CF9173
:100160001F910F91FF90EF90DF90CF90BF90AF90D5
:100170000895833081F028F4813099F08230A9F01D
:1001800008958730A9F08830C9F08430B1F48091A7
:1001900080008F7D03C0809180008F7780938000E6
:1001A000089584B58F7784BD089584B58F7DFBCF86
:1001B0008091B0008F778093B00008958091B00057
:1001C0008F7DF9CFCF93DF93282F30E0F901E255EF
:1001D000FF4F8491F901E656FF4FD491F901EA5798
:1001E000FF4FC491CC23A1F081110E94B900EC2FE4
:1001F000F0E0EE0FFF1FE458FF4FA591B491EC9192
:10020000ED2381E090E009F480E0DF91CF91089543
:1002100080E090E0FACF1F93CF93DF93282F30E058
:10022000F901E255FF4F8491F901E656FF4FD49151
:10023000F901EA57FF4FC491CC23A9F0162F811181
:100240000E94B900EC2FF0E0EE0FFF1FEE58FF4FB9
:10025000A591B4918FB7F894EC91111108C0D09585
:10026000DE23DC938FBFDF91CF911F910895DE2BAA
:10027000F8CFCF93DF9390E0FC01E656FF4F249137
:100280008A579F4FFC0184918823C9F090E0880F22
:10029000991FFC01E859FF4FA591B491FC01EE585C
:1002A000FF4FC591D49161110DC09FB7F8948C9107
:1002B000209582238C938881282328839FBFDF91F8
:1002C000CF910895623051F49FB7F8943C91822FFA
:1002D000809583238C93E8812E2BEFCF8FB7F894F2
:1002E000EC912E2B2C938FBFEACF3FB7F8948091DF
:1002F000B9019091BA01A091BB01B091BC0126B5A2
:10030000A89B05C02F3F19F00196A11DB11D3FBF4D
:10031000BA2FA92F982F8827BC01CD01620F711D1C
:10032000811D911D42E0660F771F881F991F4A9516
:10033000D1F708958F929F92AF92BF92CF92DF92A2
:10034000EF92FF924B015C010E9475016B017C01F1
:100350000E9475016C197D098E099F09683E7340E2
:1003600081059105A8F321E0821A9108A108B1083E
:1003700088EEC80E83E0D81EE11CF11C81149104A4
:10038000A104B10429F7FF90EF90DF90CF90BF90C8
:10039000AF909F908F900895089590E080E0089529
:1003A0008F929F92AF92BF920F931F93CF93DF9341
:1003B000CDB7DEB7A1970FB6F894DEBF0FBECDBFA5
:1003C00019A2423008F44AE08E010F5D1F4F842EBF
:1003D000912CB12CA12CA50194010E946807E62F55
:1003E000B901CA01EA3044F5E05DD801EE938D0110
:1003F000232B242B252B79F790E080E0109769F0D0
:10040000FD0101900020E9F73197AF014A1B5B0B1A
:10041000BD018FEC91E00E948C00A1960FB6F8947C
:10042000DEBF0FBECDBFDF91CF911F910F91BF9067
:10043000AF909F908F900895E95CD7CFFC01019019
:100440000020E9F73197AF01481B590BBC018FEC35
:1004500091E00C948C00CF93DF93EC0160E08E81EF
:100460000E940B0161E08E810E940B0160E08E8191
:100470000E940B018BE891E00197F1F7DF91CF919A
:100480000895CF92DF92EF92FF920F931F93CF9335
:10049000DF936C017C0187E0E80EF11CD0E0C0E046
:1004A000062F10E0B8010C2E02C0759567950A94CE
:1004B000E2F76170F70181917F010E940B012196A3
:1004C000C430D10579F7C601DF91CF911F910F910B
:1004D000FF90EF90DF90CF900C942B02CF92DF92A1
:1004E000EF92FF920F931F93CF93DF93EC01F62EC1
:1004F000642F8C810E940B018D818F3F19F060E089
:100500000E940B010F2D10E08F8584FF25C06E0126
:1005100087E0C80ED11CF12CE12CB8010E2C02C0D2
:10052000759567950A94E2F76170F60181916F0104
:100530000E940B01FFEFEF1AFF0A88E0E816F104B2
:1005400061F7CE01DF91CF911F910F91FF90EF9056
:10055000DF90CF900C942B02B80184E075956795DD
:100560008A95E1F7CE010E9441026F2DCE01DF9105
:10057000CF911F910F91FF90EF90DF90CF900C944F
:10058000410240E0682F8FEC91E00C946E0281E014
:100590000E94C1028BE39FE10197F1F70895CF9389
:1005A000DF93823029F49091DE0198609093DE0110
:1005B0008093E2011092E30180E48093E40180E102
:1005C0008093E50180E58093E60161E08091D301AD
:1005D0000E9439018091D4018F3F19F061E00E949F
:1005E000390161E08091D5010E943901CFECD1E061
:1005F0009E012F5C31408091DE0184FD0BC084E0C0
:1006000090E021962817390744F461E08E810E941A
:100610003901EECF88E090E0F4CF8BE39DE00197C5
:10062000F1F760E08091D3010E940B0160E08091BE
:10063000D5010E940B018091D4018F3F19F060E039
:100640000E940B018091DE0184FD34C063E08FECD9
:1006500091E00E944102CBE4D6E4CE010197F1F78C
:1006600063E08FEC91E00E9441022197F1F763E093
:100670008FEC91E00E94410283E592E00197F1F74F
:1006800062E08FEC91E00E9441028091DE01806285
:100690000E94C10284E08093DF018CE00E94C102CD
:1006A0000E94C70282E08093E00186E0DF91CF9153
:1006B0000C94C10280620E94C1028BE496E401970F
:1006C000F1F78091DE0180620E94C10283E592E031
:1006D0000197F1F78091DE0180620E94C102D5CFBF
:1006E0009091E201691710F06FEF690FE62FF0E0CB
:1006F000E153FE4F9489890F80680C94C10241E058
:100700000E946E0281E090E00895CF92DF92EF9216
:10071000FF926B017C0141E06DE28FEC91E00E9461
:100720006E0266277727CB016C197D098E099F0918
:100730004AE00E94D0010196FF90EF90DF90CF90A9
:100740000895CF93DF938091C9019091CA019C01D4
:100750002F5F3F4F3093CA012093C901C3E0D0E01F
:10076000C81BD90BD093B301C093B20161E08AE0FA
:100770000E947003BE01DD0F880B990B97FF14C018
:100780000E9485038091B2019091B3011816190659
:1007900044F00E94C70282E090E09093C4018093ED
:1007A000C301DF91CF9108954AE00E94D001EACFC2
:1007B0001F920F920FB60F9211242F933F938F9396
:1007C0009F93AF93BF938091B5019091B601A09193
:1007D000B701B091B8013091B40123E0230F2D3758
:1007E00058F50196A11DB11D2093B4018093B50168
:1007F0009093B601A093B701B093B8018091B9016D
:100800009091BA01A091BB01B091BC010196A11DCC
:10081000B11D8093B9019093BA01A093BB01B0932D
:10082000BC01BF91AF919F918F913F912F910F90FC
:100830000FBE0F901F90189526E8230F0296A11D5A
:10084000B11DD2CF1F920F920FB60F9211242F938A
:100850003F934F935F936F937F938F939F93AF9348
:10086000BF93EF93FF93E091C101F091C20109950D
:10087000FF91EF91BF91AF919F918F917F916F9178
:100880005F914F913F912F910F900FBE0F901F904E
:100890001895789484B5826084BD84B5816084BDE8
:1008A00085B5826085BD85B5816085BD80916E000E
:1008B000816080936E00109281008091810082603F
:1008C000809381008091810081608093810080917C
:1008D00080008160809380008091B100846080936B
:1008E000B1008091B00081608093B00080917A0067
:1008F000846080937A0080917A00826080937A008D
:1009000080917A00816080937A0080917A0080687B
:1009100080937A001092C10082E00E94CF0260E0D2
:1009200080E00E94700380E191E00E941E0261E07D
:1009300080E00E94700381E291E00E941E0268EE56
:1009400073E080E090E00E949A010E94C70260E09C
:1009500080E00E94700382E391E00E941E0261E049
:1009600080E00E94700383E491E00E941E0268EE22
:1009700073E080E090E00E949A0162E085E00E94CE
:10098000390162E084E00E94390160E083E10E9465
:10099000390161E08EE00E94390161E08FE00E9440
:1009A000390161E080E10E94390161E081E10E944A
:1009B000390161E082E10E94390192E1E92E9AE772
:1009C000F92E24E0422E512C612C712C30E0832E24
:1009D00030E0932E41EAC42E43E0D42E53E0A52EFE
:1009E000B12C01E010E084E1282E3324339480916F
:1009F000CD019091CE01892B09F059C01092CC0104
:100A00001092CB011092CA011092C9011092C80134
:100A10001092C7011092C6011092C5010E94C70230
:100A200060E080E00E94700384E591E00E941E0275
:100A300085E00E94E200892BF9F48091CB0190912E
:100A4000CC0101969093CC018093CB016CE271E0D4
:100A500080E090E00E949A0161E080E00E947003D3
:100A60006091CB017091CC01072E000C880B990B83
:100A700097FF19C00E94850384E00E94E20001975D
:100A8000B9F284E00E94E200892B31F41093CE0188
:100A90000093CD010E94C7028114910409F4A7CFED
:100AA0000E940000A0CF4AE00E94D001E5CF8091D3
:100AB000C3019091C40181309105D1F0823091053C
:100AC00049F1892B49F760E080E00E94700384E6D9
:100AD00091E00E941E0261E080E00E94700384E7C2
:100AE00091E00E941E021093C4010093C301D4CF71
:100AF00080E18093810010928000F0928700E09264
:100B0000860020928100D092C201C092C101309231
:100B10006F00C2CF60E080E00E9470038EE791E03A
:100B20000E941E028091C7019091C801892B59F53E
:100B30000E94DE06A30192010E9436076F5F7F4F7D
:100B40008F4F9F4F7093C0016093BF012091BF01F1
:100B50003091C0018091BD019091BE0128173907E5
:100B600039F3C091BF01D091C001C330D10509F460
:100B7000A3C00CF04DC0C130D10509F463C0C23030
:100B8000D10509F47CC083E10E94E200892B09F0C1
:100B900083CF8091C5019091C60101969093C601C3
:100BA0008093C5012091CB013091CC01821793072E
:100BB00024F41092C8011092C7012091CB0130910A
:100BC000CC01821793070CF467CF0E94C702B09242
:100BD000C401A092C3010E94C70260E080E00E94AD
:100BE00070038FE891E00E941E0261E080E00E94A5
:100BF000700380EA91E00E941E0260ED77E080E0E1
:100C000090E00E949A011092CE011092CD0144CF43
:100C1000C430D10509F45AC0C530D10509F0B3CFAD
:100C200060E08EE00E940B0160E08FE00E940B010B
:100C300060E080E10E940B0160E081E10E940B0115
:100C400061E02EC061E08EE00E940B0160E08FE069
:100C50000E940B0160E080E10E940B0160E081E1F5
:100C60000E940B0160E082E10E940B01D093BE0163
:100C7000C093BD01D093C801C093C70184CF60E089
:100C80008EE00E940B0161E08FE00E940B0160E0AA
:100C900080E10E940B0160E081E10E940B0160E0B5
:100CA00082E10E940B01D093BE01C093BD0110935D
:100CB000C8010093C70167CF60E08EE00E940B017E
:100CC00060E08FE00E940B0161E0E2CF60E08EE027
:100CD0000E940B0160E08FE00E940B0160E080E168
:100CE0000E940B0161E0D8CFEFECF1E01382128299
:100CF00088E091E0918380838CE084838FEF85830B
:100D00008BE086838AE0878389E0808788E081871B
:100D100087E082871386148615861686178681E0FB
:100D20000C94CF028F929F92AF92BF92CF92DF929C
:100D3000EF92FF92CF93DF93EC01688179818A81F2
:100D40009B81611571058105910521F464E279EDBE
:100D50008BE597E02DE133EF41E050E00E9436074C
:100D600049015A019B01AC01A7EAB1E40E94550771
:100D70006B017C01ACEEB4EFA50194010E94630706
:100D8000C60ED71EE81EF91EF7FE06C081E0C81A7F
:100D9000D108E10880E8F80AC882D982EA82FB8299
:100DA000C701B6019F77DF91CF91FF90EF90DF9061
:100DB000CF90BF90AF909F908F9008958F929F9209
:100DC000AF92BF92CF92DF92EF92FF9260910001BB
:100DD00070910101809102019091030161157105EB
:100DE0008105910521F464E279ED8BE597E02DE131
:100DF00033EF41E050E00E94360749015A019B0160
:100E0000AC01A7EAB1E40E9455076B017C01ACEE8E
:100E1000B4EFA50194010E946307C60ED71EE81E19
:100E2000F91EF7FE06C081E0C81AD108E10880E883
:100E3000F80AC0920001D0920101E0920201F09202
:100E40000301C701B6019F77FF90EF90DF90CF902D
:100E5000BF90AF909F908F90089560930001709322
:100E6000010180930201909303010895052E97FBE1
:100E70001EF400940E944D0757FD07D00E9468079A
:100E800007FC03D04EF40C944D07509540953095D7
:100E900021953F4F4F4F5F4F0895909580957095E6
:100EA00061957F4F8F4F9F4F08950E948A07A59F9E
:100EB000900DB49F900DA49F800D911D1124089555
:100EC000B7FF0C9455070E945507821B930B08959A
:100ED000A1E21A2EAA1BBB1BFD010DC0AA1FBB1F3E
:100EE000EE1FFF1FA217B307E407F50720F0A21BB0
:100EF000B30BE40BF50B661F771F881F991F1A941D
:100F000069F760957095809590959B01AC01BD0146
:100F1000CF010895A29FB001B39FC001A39F700DA0
:100F2000811D1124911DB29F700D811D1124911DF1
:100F30000895EE0FFF1F0590F491E02D0994F894A9
:020F4000FFCFE1
:100F420001000000000000007F038C00CD01CC01F5
:100F520020204269656E76656E69646F206120208B
:100F62000020205375706572204775616E74692088
:100F72002000556E61206372656163696F6E206443
:100F8200653A0020202020204D2E412E4C2E20207C
:100F92002020200043616E74206465207669616AB6
:100FA20065733A00456C206A7565676F20696E69E2
:100FB200636961002020202020656E3A20002020F5
:100FC200202041204A554741522120202020002044
:100FD2002046656C69636964616465732120200041
:100FE2002046696E2064656C206A7565676F2120F2
:020FF2000000FD
:00000001FF
