:020000040000FA
:100000000C9462000C948A000C948A000C948A0070
:100010000C948A000C948A000C948A000C948A0038
:100020000C948A000C948A000C948A000C948A0028
:100030000C948A000C9417040C948A000C948A0087
:100040000C94CD030C948A000C948A000C948A00C2
:100050000C948A000C948A000C948A000C948A00F8
:100060000C948A000C948A000000000024002700F1
:100070002A0000000000250028002B0000000000DE
:1000800023002600290004040404040404040202DA
:100090000202020203030303030301020408102007
:1000A0004080010204081020010204081020000012
:1000B0000008000201000003040700000000000027
:1000C0000000570511241FBECFEFD8E0DEBFCDBF23
:1000D00011E0A0E0B1E0EEE3FBE002C005900D927C
:1000E000AC38B107D9F721E0ACE8B1E001C01D920E
:1000F000A93BB207E1F710E0C2E6D0E004C02197C7
:10010000FE010E949705C136D107C9F70E943E043F
:100110000C949D050C940000AF92BF92CF92DF9299
:10012000EF92FF920F931F93CF93DF936C017B01AC
:100130008B01040F151FEB015E01AE18BF08C0173D
:10014000D10759F06991D601ED91FC910190F081B0
:10015000E02DC6010995892B79F7C501DF91CF9173
:100160001F910F91FF90EF90DF90CF90BF90AF90D5
:100170000895833081F028F4813099F08230A9F01D
:1001800008958730A9F08830C9F08430B1F48091A7
:1001900080008F7D03C0809180008F7780938000E6
:1001A000089584B58F7784BD089584B58F7DFBCF86
:1001B0008091B0008F778093B00008958091B00057
:1001C0008F7DF9CFCF93DF93282F30E0F901E255EF
:1001D000FF4F8491F901E656FF4FD491F901EA5798
:1001E000FF4FC491CC23A1F081110E94B900EC2FE4
:1001F000F0E0EE0FFF1FE458FF4FA591B491EC9192
:10020000ED2381E090E009F480E0DF91CF91089543
:1002100080E090E0FACF1F93CF93DF93282F30E058
:10022000F901E255FF4F8491F901E656FF4FD49151
:10023000F901EA57FF4FC491CC23A9F0162F811181
:100240000E94B900EC2FF0E0EE0FFF1FEE58FF4FB9
:10025000A591B4918FB7F894EC91111108C0D09585
:10026000DE23DC938FBFDF91CF911F910895DE2BAA
:10027000F8CFCF93DF9390E0FC01E656FF4F249137
:100280008A579F4FFC0184918823D1F090E0880F1A
:10029000991FFC01E859FF4FA591B491FC01EE585C
:1002A000FF4FC591D491623071F49FB7F8943C919F
:1002B000822F809583238C93E8812E2B28839FBFE8
:1002C000DF91CF9108958FB7F894EC912E2B2C935A
:1002D0008FBFF6CF3FB7F89480919501909196012A
:1002E000A0919701B091980126B5A89B05C02F3F1A
:1002F00019F00196A11DB11D3FBFBA2FA92F982F4C
:100300008827BC01CD01620F711D811D911D42E046
:10031000660F771F881F991F4A95D1F708958F920E
:100320009F92AF92BF92CF92DF92EF92FF924B01DA
:100330005C010E946A016B017C010E946A016C19D8
:100340007D098E099F09683E734081059105A8F3D8
:1003500021E0821A9108A108B10888EEC80E83E056
:10036000D81EE11CF11C81149104A104B10429F7E9
:10037000FF90EF90DF90CF90BF90AF909F908F90C5
:100380000895089590E080E008958F929F92AF9233
:10039000BF920F931F93CF93DF93CDB7DEB7A19793
:1003A0000FB6F894DEBF0FBECDBF19A2423008F4DD
:1003B0004AE08E010F5D1F4F842E912CB12CA12C91
:1003C000A50194010E947505E62FB901CA01EA3022
:1003D00044F5E05DD801EE938D01232B242B252BD2
:1003E00079F790E080E0109769F0FD01019000201E
:1003F000E9F73197AF014A1B5B0BBD0181EA91E040
:100400000E948C00A1960FB6F894DEBF0FBECDBF40
:10041000DF91CF911F910F91BF90AF909F908F90E0
:100420000895E95CD7CFFC0101900020E9F73197EE
:10043000AF01481B590BBC0181EA91E00C948C0080
:10044000CF93DF93EC0160E08E810E940B0161E0AD
:100450008E810E940B0160E08E810E940B018BE86F
:1004600091E00197F1F7DF91CF910895CF92DF925C
:10047000EF92FF920F931F93CF93DF936C017C0158
:1004800087E0E80EF11CD0E0C0E0062F10E0B801D4
:100490000C2E02C0759567950A94E2F76170F7011A
:1004A00081917F010E940B012196C430D10579F71B
:1004B000C601DF91CF911F910F91FF90EF90DF90D8
:1004C000CF900C942002CF92DF92EF92FF920F9385
:1004D0001F93CF93DF93EC01F62E642F8C810E9443
:1004E0000B018D818F3F19F060E00E940B010F2DF1
:1004F00010E08F8584FF25C06E0187E0C80ED11CF7
:10050000F12CE12CB8010E2C02C0759567950A9468
:10051000E2F76170F60181916F010E940B01FFEF1C
:10052000EF1AFF0A88E0E816F10461F7CE01DF91C7
:10053000CF911F910F91FF90EF90DF90CF900C948F
:100540002002B80184E0759567958A95E1F7CE01A0
:100550000E9436026F2DCE01DF91CF911F910F9136
:10056000FF90EF90DF90CF900C94360240E0682F20
:1005700081EA91E00C94630281E00E94B6028BE371
:100580009FE10197F1F70895CF93DF93823029F42B
:100590009091B00198609093B0018093B401109253
:1005A000B50180E48093B60180E18093B70180E5D6
:1005B0008093B80161E08091A5010E94390180918A
:1005C000A6018F3F19F061E00E94390161E080913E
:1005D000A7010E943901C1EAD1E09E01215A3140B0
:1005E0008091B00184FD0BC084E090E02196281733
:1005F000390744F461E08E810E943901EECF88E032
:1006000090E0F4CF8BE39DE00197F1F760E08091FB
:10061000A5010E940B0160E08091A7010E940B01DF
:100620008091A6018F3F19F060E00E940B0180913C
:10063000B00184FD34C063E081EA91E00E9436029B
:10064000CBE4D6E4CE010197F1F763E081EA91E0D3
:100650000E9436022197F1F763E081EA91E00E945F
:10066000360283E592E00197F1F762E081EA91E0DA
:100670000E9436028091B00180620E94B60284E03E
:100680008093B1018CE00E94B6020E94BC0282E01D
:100690008093B20186E0DF91CF910C94B602806224
:1006A0000E94B6028BE496E40197F1F78091B001C5
:1006B00080620E94B60283E592E00197F1F7809193
:1006C000B00180620E94B602D5CF9091B401691743
:1006D00010F06FEF690FE62FF0E0EF55FE4F9489B1
:1006E000890F80680C94B60241E00E94630281E0A9
:1006F00090E00895CF92DF92EF92FF926B017C0120
:1007000041E06DE281EA91E00E946302662777276B
:10071000CB016C197D098E099F094AE00E94C50131
:100720000196FF90EF90DF90CF900895CF93DF93E5
:1007300080918E0190918F019C012F5F3F4F3093EC
:100740008F0120938E01C5E0D0E0C81BD90BD09358
:100750008D01C0938C0161E08AE00E946503BE01B7
:10076000DD0F880B990B97FF14C00E947A038091CC
:100770008C0190918D011816190644F00E94BC025C
:1007800082E090E090939E0180939D01DF91CF9154
:1007900008954AE00E94C501EACF1F920F920FB65A
:1007A0000F9211242F933F938F939F93AF93BF93F7
:1007B0008091910190919201A0919301B091940147
:1007C0003091900123E0230F2D3758F50196A11D9C
:1007D000B11D209390018093910190939201A09379
:1007E0009301B09394018091950190919601A0910D
:1007F0009701B09198010196A11DB11D80939501BB
:1008000090939601A0939701B0939801BF91AF91F7
:100810009F918F913F912F910F900FBE0F901F903E
:10082000189526E8230F0296A11DB11DD2CF1F9265
:100830000F920FB60F9211242F933F934F935F9314
:100840006F937F938F939F93AF93BF93EF93FF9398
:10085000E0919B01F0919C010995FF91EF91BF916F
:10086000AF919F918F917F916F915F914F913F9148
:100870002F910F900FBE0F901F901895789484B50C
:10088000826084BD84B5816084BD85B5826085BD8C
:1008900085B5816085BD80916E00816080936E001A
:1008A000109281008091810082608093810080910C
:1008B00081008160809381008091800081608093BD
:1008C00080008091B10084608093B1008091B0007D
:1008D00081608093B00080917A00846080937A0078
:1008E00080917A00826080937A0080917A008160A2
:1008F00080937A0080917A00806880937A001092C9
:10090000C10082E00E94C40260E080E00E946503B2
:100910008CE091E00E94130261E080E00E94650398
:100920008DE191E00E94130268EE73E080E090E0B8
:100930000E948F010E94BC0260E080E00E9465037B
:100940008EE291E00E94130261E080E00E94650364
:100950008FE391E00E94130268EE73E080E090E084
:100960000E948F0162E085E00E94390162E084E02C
:100970000E94390180E1B82E92E1E92E9AE7F92E22
:1009800024E1A22E9924939400E010E036E9C32ECE
:1009900033E0D32EC1E0D0E080919F019091A0017F
:1009A000892B09F049C00E94BC0260E080E00E94EF
:1009B000650380E591E00E94130285E00E94E20059
:1009C000892BF9F48091990190919A010196909365
:1009D0009A01809399016CE271E080E090E00E94BE
:1009E0008F0161E080E00E94650360919901709140
:1009F0009A01072E000C880B990B97FF19C00E94D3
:100A00007A0384E00E94E2000197B9F284E00E9438
:100A1000E200892B31F4D093A001C0939F010E9482
:100A2000BC020115110509F4B7CF0E940000B4CF34
:100A30004AE00E94C501E5CF80919D0190919E0101
:100A400081309105D1F08230910541F1892B49F730
:100A500060E080E00E94650380E691E00E9413025E
:100A600061E080E00E94650380E791E00E9413024C
:100A7000D0939E01C0939D01D4CFB092810010927B
:100A80008000F0928700E0928600A0928100D092D0
:100A90009C01C0929B0190926F00C3CF60E080E008
:100AA0000E9465038AE791E00E941302BACFE1EA4F
:100AB000F1E01382128284E091E0918380838CE0E4
:100AC00084838FEF85838BE086838AE0878389E048
:100AD000808788E0818787E0828713861486158661
:100AE0001686178681E00C94C402A1E21A2EAA1B76
:100AF000BB1BFD010DC0AA1FBB1FEE1FFF1FA217CE
:100B0000B307E407F50720F0A21BB30BE40BF50BCA
:100B1000661F771F881F991F1A9469F76095709553
:100B2000809590959B01AC01BD01CF010895EE0F1A
:100B3000FF1F0590F491E02D0994F894FFCF000079
:100B4000000074038C00C201C10120204269656E5F
:100B500076656E69646F20612020002020537570D7
:100B60006572204775616E7469202000556E6120A2
:100B70006372656163696F6E2064653A00202020AE
:100B800020204D2E412E4C2E20202020200043617D
:100B90006E74206465207669616A65733A00456CFD
:100BA000206A7565676F20696E696369610020203E
:100BB000202020656E3A20002020202041204A5528
:0A0BC00047415221202020200000B0
:107E0000112484B714BE81FFF0D085E080938100F7
:107E100082E08093C00088E18093C10086E0809377
:107E2000C20080E18093C4008EE0C9D0259A86E02C
:107E300020E33CEF91E0309385002093840096BBD3
:107E4000B09BFECF1D9AA8958150A9F7CC24DD24C4
:107E500088248394B5E0AB2EA1E19A2EF3E0BF2EE7
:107E6000A2D0813461F49FD0082FAFD0023811F036
:107E7000013811F484E001C083E08DD089C08234E0
:107E800011F484E103C0853419F485E0A6D080C0E4
:107E9000853579F488D0E82EFF2485D0082F10E0AE
:107EA000102F00270E291F29000F111F8ED06801E7
:107EB0006FC0863521F484E090D080E0DECF843638
:107EC00009F040C070D06FD0082F6DD080E0C81688
:107ED00080E7D80618F4F601B7BEE895C0E0D1E017
:107EE00062D089930C17E1F7F0E0CF16F0E7DF06D8
:107EF00018F0F601B7BEE89568D007B600FCFDCFD4
:107F0000A601A0E0B1E02C9130E011968C91119780
:107F100090E0982F8827822B932B1296FA010C0160
:107F200087BEE89511244E5F5F4FF1E0A038BF0790
:107F300051F7F601A7BEE89507B600FCFDCF97BE46
:107F4000E89526C08437B1F42ED02DD0F82E2BD052
:107F50003CD0F601EF2C8F010F5F1F4F84911BD097
:107F6000EA94F801C1F70894C11CD11CFA94CF0C13
:107F7000D11C0EC0853739F428D08EE10CD085E9AC
:107F80000AD08FE07ACF813511F488E018D01DD067
:107F900080E101D065CF982F8091C00085FFFCCF94
:107FA0009093C60008958091C00087FFFCCF809118
:107FB000C00084FD01C0A8958091C6000895E0E648
:107FC000F0E098E1908380830895EDDF803219F02E
:107FD00088E0F5DFFFCF84E1DECF1F93182FE3DFCA
:107FE0001150E9F7F2DF1F91089580E0E8DFEE27F6
:047FF000FF270994CA
:027FFE00040479
:00000001FF
