:020000040000FA
:100000000C9462000C943C030C9415030C948A002D
:100010000C948A000C948A000C948A000C948A0038
:100020000C948A000C948A000C948A000C948A0028
:100030000C948A000C948A000C948A000C948A0018
:100040000C94CB020C948A000C948A000C948A00C5
:100050000C948A000C948A000C948A000C948A00F8
:100060000C948A000C948A000000000024002700F1
:100070002A0000000000250028002B0000000000DE
:1000800023002600290004040404040404040202DA
:100090000202020203030303030301020408102007
:1000A0004080010204081020010204081020000012
:1000B0000008000201000003040700000000000027
:1000C00000009D0411241FBECFEFD8E0DEBFCDBFDE
:1000D00011E0A0E0B1E0EAECF9E002C005900D9279
:1000E000A233B107D9F721E0A2E3B1E001C01D922C
:1000F000A735B207E1F710E0C2E6D0E004C02197CF
:10010000FE010E94DD04C136D107C9F70E946303D6
:100110000C94E3040C940000AF92BF92CF92DF9254
:10012000EF92FF920F931F93CF93DF936C017B01AC
:100130008B01040F151FEB015E01AE18BF08C0173D
:10014000D10759F06991D601ED91FC910190F081B0
:10015000E02DC6010995892B79F7C501DF91CF9173
:100160001F910F91FF90EF90DF90CF90BF90AF90D5
:100170000895833081F028F4813099F08230A9F01D
:1001800008958730A9F08830C9F08430B1F48091A7
:1001900080008F7D03C0809180008F7780938000E6
:1001A000089584B58F7784BD089584B58F7DFBCF86
:1001B0008091B0008F778093B00008958091B00057
:1001C0008F7DF9CF1F93CF93DF93282F30E0F90174
:1001D000E255FF4F8491F901E656FF4FD491F901A2
:1001E000EA57FF4FC491CC23A9F0162F81110E942A
:1001F000B900EC2FF0E0EE0FFF1FEE58FF4FA59176
:10020000B4918FB7F894EC91111108C0D095DE230A
:10021000DC938FBFDF91CF911F910895DE2BF8CF34
:10022000CF93DF9390E0FC01E656FF4F24918A576D
:100230009F4FFC0184918823D1F090E0880F991F93
:10024000FC01E859FF4FA591B491FC01EE58FF4F16
:10025000C591D49161110EC09FB7F8948C91E22F93
:10026000E0958E238C932881E223E8839FBFDF9162
:10027000CF9108958FB7F894EC91E22BEC938FBF58
:10028000F6CF3FB7F8948091370190913801A09153
:100290003901B0913A0126B5A89B05C02F3F19F04E
:1002A0000196A11DB11D3FBFBA2FA92F982F8827F6
:1002B000BC01CD01620F711D811D911D42E0660FD1
:1002C000771F881F991F4A95D1F7089508950895BB
:1002D00090E080E00895FC0101900020E9F731975B
:1002E000AF01481B590BBC018FE391E00C948C00CB
:1002F000CF93DF93EC0160E08E810E94E20061E029
:100300008E810E94E20060E08E810E94E2008BE814
:1003100091E00197F1F7DF91CF910895CF92DF92AD
:10032000EF92FF920F931F93CF93DF936C017C01A9
:1003300087E0E80EF11CD0E0C0E0062F10E0B80125
:100340000C2E02C0759567950A94E2F76170F7016B
:1003500081917F010E94E2002196C430D10579F796
:10036000C601DF91CF911F910F91FF90EF90DF9029
:10037000CF900C947801CF92DF92EF92FF920F937F
:100380001F93CF93DF93EC01F62E642F8C810E9494
:10039000E2008D818F3F19F060E00E94E2000F2D96
:1003A00010E08F8584FF25C06E0187E0C80ED11C48
:1003B000F12CE12CB8010E2C02C0759567950A94BA
:1003C000E2F76170F60181916F010E94E200FFEF98
:1003D000EF1AFF0A88E0E816F10461F7CE01DF9119
:1003E000CF911F910F91FF90EF90DF90CF900C94E1
:1003F0007801B80184E0759567958A95E1F7CE019B
:100400000E948E016F2DCE01DF91CF911F910F9130
:10041000FF90EF90DF90CF900C948E0140E0682F1A
:100420008FE391E00C94BB0181E00E940E028BE30C
:100430009FE10197F1F7089581E090E090933E01EC
:1004400080933D010C941402CF93DF93823029F402
:1004500090914E01986090934E01809352011092BA
:10046000530180E48093540180E18093550180E53D
:100470008093560161E0809143010E9410018091B8
:1004800044018F3F19F061E00E94100161E080910A
:1004900045010E941001CFE3D1E09E012F5331406E
:1004A00080914E0184FD0BC084E090E021962817D6
:1004B000390744F461E08E810E941001EECF88E09C
:1004C00090E0F4CF8BE39DE00197F1F760E080913D
:1004D00043010E94E20060E0809145010E94E20039
:1004E000809144018F3F19F060E00E94E20080910A
:1004F0004E0184FD34C063E08FE391E00E948E01E1
:10050000CBE4D6E4CE010197F1F763E08FE391E00D
:100510000E948E012197F1F763E08FE391E00E9442
:100520008E0183E592E00197F1F762E08FE391E0BD
:100530000E948E0180914E0180620E940E0284E032
:1005400080934F018CE00E940E020E94140282E010
:100550008093500186E0DF91CF910C940E0280626F
:100560000E940E028BE496E40197F1F780914E0110
:1005700080620E940E0283E592E00197F1F780917C
:100580004E0180620E940E02D5CF41E00E94BB0165
:1005900081E090E008951F920F920FB60F92112400
:1005A0002F933F938F939F93AF93BF93809133018A
:1005B00090913401A0913501B09136013091320112
:1005C00023E0230F2D3758F50196A11DB11D20936F
:1005D00032018093330190933401A0933501B0939D
:1005E00036018091370190913801A0913901B09185
:1005F0003A010196A11DB11D8093370190933801F6
:10060000A0933901B0933A01BF91AF919F918F911F
:100610003F912F910F900FBE0F901F90189526E8D5
:10062000230F0296A11DB11DD2CF1F920F920FB6BC
:100630000F9211242F933F934F935F936F937F9368
:100640008F939F93AF93BF93EF93FF93E09102013A
:10065000F09103010995FF91EF91BF91AF919F91A7
:100660008F917F916F915F914F913F912F910F905B
:100670000FBE0F901F9018951F920F920FB60F92FA
:1006800011242F933F934F935F936F937F938F9397
:100690009F93AF93BF93EF93FF93E0910001F0918D
:1006A00001010995FF91EF91BF91AF919F918F91BA
:1006B0007F916F915F914F913F912F910F900FBE5E
:1006C0000F901F901895CF93DF93CDB7DEB7A1970A
:1006D0000FB6F894DEBF0FBECDBF789484B58260AC
:1006E00084BD84B5816084BD85B5826085BD85B5D6
:1006F000816085BD80916E00816080936E00109254
:1007000081008091810082608093810080918100CE
:10071000816080938100809180008160809380005F
:100720008091B10084608093B1008091B0008160BD
:100730008093B00080917A00846080937A008091E9
:100740007A00826080937A0080917A008160809341
:100750007A0080917A00806880937A001092C100BC
:1007600082E00E94240260E085E00E94100160E0C7
:1007700084E00E9410012BE8222E20E0322E3AE085
:10078000432E512C612C712C00E010E080913D0132
:1007900090913E01892B09F0BEC00E941402E1E055
:1007A000809152018111E0E0E195F0E0E15CFE4FC3
:1007B000848980680E940E0280E191E00E946B01B2
:1007C000E3EBF0E08491EFE9F0E0F490F101E490E4
:1007D000E1106CC080913B0190913C010196909397
:1007E0003C0180933B010E9441014B015C019CE272
:1007F000C92EDD24D394E12CF12C0E94410168190B
:1008000079098A099B09683E734081059105A8F31F
:10081000F1E0CF1AD108E108F10828EE820E23E0BA
:10082000921EA11CB11CC114D104E104F10429F7EA
:10083000E0915201E23008F056C0E150F0E0E15C96
:10084000FE4F848980680E940E02C0903B01D090C8
:100850003C010D2C000CEE08FF08F7FE46C041E0FD
:100860006DE28FE391E00E94BB0122273327A901AB
:100870002C193D094E095F0919A2CE0181967C0110
:10088000CA01B901A30192010E94BB04605DF70196
:1008900062937F01211531054105510589F7E11466
:1008A000F10499F0C7010E946B010FC081110E94F1
:1008B000B900EE2DF0E0EE0FFF1FE458FF4FA591B9
:1008C000B4918C91F82209F485CF80913D019091EB
:1008D0003E01892B09F474CF0115110509F456CF97
:1008E0000E94000053CFE1E0A9CFA701960119A211
:1008F000CE0181967C01CA01B901A30192010E9437
:10090000BB04605DF70162937F012115310541054C
:10091000510589F7C4CFE1E0809152018111E0E0F7
:10092000E195F0E0E15CFE4F848980680E940E0250
:1009300080E291E00E946B01CFCFEFE3F1E0138200
:10094000128288E091E0918380838CE084838FEF32
:1009500085838BE086838AE0878389E0808788E0CF
:10096000818787E082871386148615861686178608
:1009700081E00C942402A1E21A2EAA1BBB1BFD01EC
:100980000DC0AA1FBB1FEE1FFF1FA217B307E4076E
:10099000F50720F0A21BB30BE40BF50B661F771FC6
:1009A000881F991F1A9469F76095709580959095A6
:1009B0009B01AC01BD01CF010895EE0FFF1F059013
:1009C000F491E02D0994F894FFCF660166010000D0
:1009D0000000C5028C006801670143616E742064E9
:1009E00065207669616A65733A00496E6963696F6B
:0C09F0002064656C206A7565676F00006C
:107E0000112484B714BE81FFF0D085E080938100F7
:107E100082E08093C00088E18093C10086E0809377
:107E2000C20080E18093C4008EE0C9D0259A86E02C
:107E300020E33CEF91E0309385002093840096BBD3
:107E4000B09BFECF1D9AA8958150A9F7CC24DD24C4
:107E500088248394B5E0AB2EA1E19A2EF3E0BF2EE7
:107E6000A2D0813461F49FD0082FAFD0023811F036
:107E7000013811F484E001C083E08DD089C08234E0
:107E800011F484E103C0853419F485E0A6D080C0E4
:107E9000853579F488D0E82EFF2485D0082F10E0AE
:107EA000102F00270E291F29000F111F8ED06801E7
:107EB0006FC0863521F484E090D080E0DECF843638
:107EC00009F040C070D06FD0082F6DD080E0C81688
:107ED00080E7D80618F4F601B7BEE895C0E0D1E017
:107EE00062D089930C17E1F7F0E0CF16F0E7DF06D8
:107EF00018F0F601B7BEE89568D007B600FCFDCFD4
:107F0000A601A0E0B1E02C9130E011968C91119780
:107F100090E0982F8827822B932B1296FA010C0160
:107F200087BEE89511244E5F5F4FF1E0A038BF0790
:107F300051F7F601A7BEE89507B600FCFDCF97BE46
:107F4000E89526C08437B1F42ED02DD0F82E2BD052
:107F50003CD0F601EF2C8F010F5F1F4F84911BD097
:107F6000EA94F801C1F70894C11CD11CFA94CF0C13
:107F7000D11C0EC0853739F428D08EE10CD085E9AC
:107F80000AD08FE07ACF813511F488E018D01DD067
:107F900080E101D065CF982F8091C00085FFFCCF94
:107FA0009093C60008958091C00087FFFCCF809118
:107FB000C00084FD01C0A8958091C6000895E0E648
:107FC000F0E098E1908380830895EDDF803219F02E
:107FD00088E0F5DFFFCF84E1DECF1F93182FE3DFCA
:107FE0001150E9F7F2DF1F91089580E0E8DFEE27F6
:047FF000FF270994CA
:027FFE00040479
:00000001FF
